{
  "contractName": "MushroomStaking",
  "abi": [
    {
      "inputs": [],
      "stateMutability": "nonpayable",
      "type": "constructor"
    },
    {
      "anonymous": false,
      "inputs": [
        {
          "indexed": true,
          "internalType": "address",
          "name": "_stakeholder",
          "type": "address"
        },
        {
          "indexed": false,
          "internalType": "uint256",
          "name": "_amount",
          "type": "uint256"
        }
      ],
      "name": "Claim",
      "type": "event"
    },
    {
      "anonymous": false,
      "inputs": [
        {
          "indexed": true,
          "internalType": "address",
          "name": "_stakeholder",
          "type": "address"
        },
        {
          "indexed": false,
          "internalType": "uint256",
          "name": "_amount",
          "type": "uint256"
        }
      ],
      "name": "Deposit",
      "type": "event"
    },
    {
      "anonymous": false,
      "inputs": [
        {
          "indexed": true,
          "internalType": "address",
          "name": "previousOwner",
          "type": "address"
        },
        {
          "indexed": true,
          "internalType": "address",
          "name": "newOwner",
          "type": "address"
        }
      ],
      "name": "OwnershipTransferred",
      "type": "event"
    },
    {
      "inputs": [],
      "name": "owner",
      "outputs": [
        {
          "internalType": "address",
          "name": "",
          "type": "address"
        }
      ],
      "stateMutability": "view",
      "type": "function",
      "constant": true
    },
    {
      "inputs": [],
      "name": "renounceOwnership",
      "outputs": [],
      "stateMutability": "nonpayable",
      "type": "function"
    },
    {
      "inputs": [],
      "name": "stakeholderCount",
      "outputs": [
        {
          "internalType": "uint256",
          "name": "",
          "type": "uint256"
        }
      ],
      "stateMutability": "view",
      "type": "function",
      "constant": true
    },
    {
      "inputs": [
        {
          "internalType": "address",
          "name": "",
          "type": "address"
        }
      ],
      "name": "stakeholders",
      "outputs": [
        {
          "internalType": "address",
          "name": "addr",
          "type": "address"
        }
      ],
      "stateMutability": "view",
      "type": "function",
      "constant": true
    },
    {
      "inputs": [],
      "name": "startTime",
      "outputs": [
        {
          "internalType": "uint256",
          "name": "",
          "type": "uint256"
        }
      ],
      "stateMutability": "view",
      "type": "function",
      "constant": true
    },
    {
      "inputs": [
        {
          "internalType": "address",
          "name": "newOwner",
          "type": "address"
        }
      ],
      "name": "transferOwnership",
      "outputs": [],
      "stateMutability": "nonpayable",
      "type": "function"
    },
    {
      "inputs": [
        {
          "internalType": "uint256",
          "name": "_startTime",
          "type": "uint256"
        }
      ],
      "name": "setStartTime",
      "outputs": [],
      "stateMutability": "nonpayable",
      "type": "function"
    },
    {
      "inputs": [],
      "name": "contractBalance",
      "outputs": [
        {
          "internalType": "uint256",
          "name": "",
          "type": "uint256"
        }
      ],
      "stateMutability": "view",
      "type": "function",
      "constant": true
    },
    {
      "inputs": [],
      "name": "rewardRate",
      "outputs": [
        {
          "internalType": "uint256",
          "name": "",
          "type": "uint256"
        }
      ],
      "stateMutability": "pure",
      "type": "function",
      "constant": true
    },
    {
      "inputs": [
        {
          "internalType": "address",
          "name": "_stakeholder",
          "type": "address"
        }
      ],
      "name": "stakes",
      "outputs": [
        {
          "components": [
            {
              "internalType": "uint256",
              "name": "amount",
              "type": "uint256"
            },
            {
              "internalType": "uint256",
              "name": "claimed",
              "type": "uint256"
            },
            {
              "internalType": "uint256",
              "name": "lastClaimDate",
              "type": "uint256"
            }
          ],
          "internalType": "struct MushroomStaking.Stake[]",
          "name": "",
          "type": "tuple[]"
        }
      ],
      "stateMutability": "view",
      "type": "function",
      "constant": true
    },
    {
      "inputs": [
        {
          "internalType": "address",
          "name": "_stakeholder",
          "type": "address"
        }
      ],
      "name": "isStakeholder",
      "outputs": [
        {
          "internalType": "bool",
          "name": "",
          "type": "bool"
        }
      ],
      "stateMutability": "view",
      "type": "function",
      "constant": true
    },
    {
      "inputs": [],
      "name": "deposit",
      "outputs": [],
      "stateMutability": "payable",
      "type": "function",
      "payable": true
    },
    {
      "inputs": [],
      "name": "claim",
      "outputs": [],
      "stateMutability": "payable",
      "type": "function",
      "payable": true
    }
  ],
  "bytecode": "0x608060405234801561001057600080fd5b5061001a33610035565b60018055600280546001600160a01b03191633179055610085565b600080546001600160a01b038381166001600160a01b0319831681178455604051919092169283917f8be0079c531659141344cd1fd0a4f28419497f9722a3daafe3b4186f6b6457e09190a35050565b610bbf806100946000396000f3fe6080604052600436106100c25760003560e01c80638b7afe2e1161007f578063d0e30db011610059578063d0e30db0146101f0578063d8319ef3146101f8578063ef037b901461020e578063f2fde38b1461025957600080fd5b80638b7afe2e146101755780638da5cb5b14610188578063c07cfca9146101ba57600080fd5b806316934fc4146100c75780633e0a322d146100fd5780634e71d92d1461011f578063715018a61461012757806378e979251461013c5780637b0a47ee14610160575b600080fd5b3480156100d357600080fd5b506100e76100e23660046109fd565b610279565b6040516100f49190610a2d565b60405180910390f35b34801561010957600080fd5b5061011d610118366004610a86565b610377565b005b61011d6103f6565b34801561013357600080fd5b5061011d6106c8565b34801561014857600080fd5b5061015260035481565b6040519081526020016100f4565b34801561016c57600080fd5b50610e42610152565b34801561018157600080fd5b5047610152565b34801561019457600080fd5b506000546001600160a01b03165b6040516001600160a01b0390911681526020016100f4565b3480156101c657600080fd5b506101a26101d53660046109fd565b6005602052600090815260409020546001600160a01b031681565b61011d6106fe565b34801561020457600080fd5b5061015260045481565b34801561021a57600080fd5b506102496102293660046109fd565b6001600160a01b0390811660009081526005602052604090205416151590565b60405190151581526020016100f4565b34801561026557600080fd5b5061011d6102743660046109fd565b6108b4565b336000908152600560205260409020546060906001600160a01b03166102e65760405162461bcd60e51b815260206004820152601d60248201527f63616c6c6572206973206e6f7420746865207374616b65686f6c64657200000060448201526064015b60405180910390fd5b6001600160a01b038216600090815260056020908152604080832060010180548251818502810185019093528083529193909284015b8282101561036c578382906000526020600020906003020160405180606001604052908160008201548152602001600182015481526020016002820154815250508152602001906001019061031c565b505050509050919050565b6000546001600160a01b031633146103a15760405162461bcd60e51b81526004016102dd90610a9f565b600354156103f15760405162461bcd60e51b815260206004820152601960248201527f6576656e742068617320616c726561647920737461727465640000000000000060448201526064016102dd565b600355565b6002600154036104485760405162461bcd60e51b815260206004820152601f60248201527f5265656e7472616e637947756172643a207265656e7472616e742063616c6c0060448201526064016102dd565b6002600155336000908152600560205260409020546001600160a01b03166104b25760405162461bcd60e51b815260206004820152601d60248201527f63616c6c6572206973206e6f7420746865207374616b65686f6c64657200000060448201526064016102dd565b60035442116104fe5760405162461bcd60e51b8152602060048201526018602482015277195d995b9d081a5cc81b9bdd081cdd185c9d1959081e595d60421b60448201526064016102dd565b60008060005b3360009081526005602052604090206001015481101561064d57336000908152600560205260408120600101805461058391908490811061054757610547610ad4565b9060005260206000209060030201604051806060016040529081600082015481526020016001820154815260200160028201548152505061094f565b905060006105908261099e565b905061059c8183610b00565b3360009081526005602052604090206001018054859081106105c0576105c0610ad4565b906000526020600020906003020160010160008282546105e09190610b17565b909155505033600090815260056020526040902060010180544291908590811061060c5761060c610ad4565b600091825260209091206002600390920201015561062a8286610b17565b94506106368185610b17565b93505050808061064590610b2f565b915050610504565b50336108fc61065c8385610b00565b6040518115909202916000818181858888f19350505050158015610684573d6000803e3d6000fd5b506002546040516001600160a01b039091169082156108fc029083906000818181858888f193505050501580156106bf573d6000803e3d6000fd5b50506001805550565b6000546001600160a01b031633146106f25760405162461bcd60e51b81526004016102dd90610a9f565b6106fc60006109ad565b565b6002600154036107505760405162461bcd60e51b815260206004820152601f60248201527f5265656e7472616e637947756172643a207265656e7472616e742063616c6c0060448201526064016102dd565b600260015560035461079f5760405162461bcd60e51b8152602060048201526018602482015277195d995b9d081a5cc81b9bdd081cdd185c9d1959081e595d60421b60448201526064016102dd565b336000908152600560205260409020546001600160a01b03166107f15733600081815260056020526040812080546001600160a01b03191690921790915560048054916107eb83610b2f565b91905055505b60006107fc3461099e565b9050600061080a8234610b00565b9050600060035442101561081d57506003545b336000908152600560209081526040808320815160608101835286815280840185815281840187815260019384018054808601825590885295872092516003909602909201948555519184019190915551600292830155905490516001600160a01b03909116916108fc861502918691818181858888f193505050501580156108aa573d6000803e3d6000fd5b5050600180555050565b6000546001600160a01b031633146108de5760405162461bcd60e51b81526004016102dd90610a9f565b6001600160a01b0381166109435760405162461bcd60e51b815260206004820152602660248201527f4f776e61626c653a206e6577206f776e657220697320746865207a65726f206160448201526564647265737360d01b60648201526084016102dd565b61094c816109ad565b50565b60006301e133806064610e4284600001518560400151426109709190610b00565b61097a9190610b48565b6109849190610b48565b61098e9190610b67565b6109989190610b67565b92915050565b6000606461098e836001610b48565b600080546001600160a01b038381166001600160a01b0319831681178455604051919092169283917f8be0079c531659141344cd1fd0a4f28419497f9722a3daafe3b4186f6b6457e09190a35050565b600060208284031215610a0f57600080fd5b81356001600160a01b0381168114610a2657600080fd5b9392505050565b602080825282518282018190526000919060409081850190868401855b82811015610a795781518051855286810151878601528501518585015260609093019290850190600101610a4a565b5091979650505050505050565b600060208284031215610a9857600080fd5b5035919050565b6020808252818101527f4f776e61626c653a2063616c6c6572206973206e6f7420746865206f776e6572604082015260600190565b634e487b7160e01b600052603260045260246000fd5b634e487b7160e01b600052601160045260246000fd5b600082821015610b1257610b12610aea565b500390565b60008219821115610b2a57610b2a610aea565b500190565b600060018201610b4157610b41610aea565b5060010190565b6000816000190483118215151615610b6257610b62610aea565b500290565b600082610b8457634e487b7160e01b600052601260045260246000fd5b50049056fea2646970667358221220e3241b27af3e86022f098d5dae56d902ea5dedfe7c0c8d739d08147e027efab064736f6c634300080d0033",
  "immutableReferences": {},
  "source": "// SPDX-License-Identifier: MIT\npragma solidity ^0.8.0;\n\nimport \"@openzeppelin/contracts/access/Ownable.sol\";\nimport \"@openzeppelin/contracts/security/ReentrancyGuard.sol\";\n\ncontract MushroomStaking is Ownable, ReentrancyGuard {\n    uint256 constant REWARD_RATE = 3650;\n\n    address private _owner;\n\n    uint256 public startTime;\n    uint256 public stakeholderCount;\n    mapping(address => Stakeholder) public stakeholders;\n\n    struct Stakeholder {\n        address addr;\n        Stake[] stakes;\n    }\n\n    struct Stake {\n        uint256 amount;\n        uint256 claimed;\n        uint256 lastClaimDate;\n    }\n\n    constructor() {\n        _owner = msg.sender;\n    }\n\n    modifier onlyStakeholder() {\n        require(isStakeholder(msg.sender), \"caller is not the stakeholder\");\n        _;\n    }\n\n    modifier onlyOpened() {\n        require(startTime > 0, \"event is not started yet\");\n        _;\n    }\n\n    modifier onlyStarted() {\n        require(block.timestamp > startTime, \"event is not started yet\");\n        _;\n    }\n\n    function setStartTime(uint256 _startTime)\n        external\n        onlyOwner\n    {\n        require(startTime == 0, \"event has already started\");\n        startTime = _startTime;\n    }\n\n    function contractBalance()\n        external\n        view\n        returns (uint256)\n    {\n        return address(this).balance;\n    }\n\n    function rewardRate()\n        external\n        pure\n        returns (uint256)\n    {\n        return REWARD_RATE;\n    }\n\n    function stakes(address _stakeholder)\n        external\n        view\n        onlyStakeholder\n        returns (Stake[] memory)\n    {\n        return stakeholders[_stakeholder].stakes;\n    }\n\n    function isStakeholder(address _stakeholder)\n        public\n        view\n        returns (bool)\n    {\n        return stakeholders[_stakeholder].addr != address(0);\n    }\n\n    function deposit()\n        public\n        payable\n        nonReentrant\n        onlyOpened\n    {\n        if (!isStakeholder(msg.sender)) {\n            stakeholders[msg.sender].addr = msg.sender;\n            stakeholderCount++;\n        }\n        uint256 _fee = calculateFee(msg.value);\n        uint256 _amount = msg.value - _fee;\n        uint256 _lastClaimDate;\n        if (block.timestamp < startTime) {\n            _lastClaimDate = startTime;\n        }\n        stakeholders[msg.sender].stakes.push(Stake({\n            amount: _amount,\n            claimed: 0,\n            lastClaimDate: _lastClaimDate\n        }));\n        payable(_owner).transfer(_fee);\n    }\n\n    function claim()\n        public\n        payable\n        nonReentrant\n        onlyStakeholder\n        onlyStarted\n    {\n        uint256 _totalRewards;\n        uint256 _totalFees;\n        for (uint256 i = 0; i < stakeholders[msg.sender].stakes.length; i++) {\n            uint256 _reward = calculateReward(stakeholders[msg.sender].stakes[i]);\n            uint256 _fee = calculateFee(_reward);\n            stakeholders[msg.sender].stakes[i].claimed += _reward - _fee;\n            stakeholders[msg.sender].stakes[i].lastClaimDate = block.timestamp;\n            _totalRewards += _reward;\n            _totalFees += _fee;\n        }\n        payable(msg.sender).transfer(_totalRewards - _totalFees);\n        payable(_owner).transfer(_totalFees);\n    }\n\n    function calculateReward(Stake memory _stake)\n        private\n        view\n        returns (uint256)\n    {\n        return (block.timestamp - _stake.lastClaimDate) * _stake.amount * REWARD_RATE / 100 / 365 days;\n    }\n\n    function calculateFee(uint256 _amount)\n        private\n        pure\n        returns (uint256)\n    {\n        return _amount * 1 / 100;\n    }\n\n    event Deposit(address indexed _stakeholder, uint256 _amount);\n    event Claim(address indexed _stakeholder, uint256 _amount);\n}\n",
  "sourcePath": "/Users/memochou/Projects/mushroom-staking/contracts/MushroomStaking.sol",
  "compiler": {
    "name": "solc",
    "version": "0.8.13+commit.abaa5c0e.Emscripten.clang"
  },
  "schemaVersion": "3.4.7",
  "updatedAt": "2022-06-14T18:17:57.839Z",
  "networkType": "ethereum",
  "devdoc": {
    "kind": "dev",
    "methods": {
      "owner()": {
        "details": "Returns the address of the current owner."
      },
      "renounceOwnership()": {
        "details": "Leaves the contract without owner. It will not be possible to call `onlyOwner` functions anymore. Can only be called by the current owner. NOTE: Renouncing ownership will leave the contract without an owner, thereby removing any functionality that is only available to the owner."
      },
      "transferOwnership(address)": {
        "details": "Transfers ownership of the contract to a new account (`newOwner`). Can only be called by the current owner."
      }
    },
    "version": 1
  },
  "userdoc": {
    "kind": "user",
    "methods": {},
    "version": 1
  }
}