{
  "contractName": "MushroomStaking",
  "abi": [
    {
      "inputs": [],
      "stateMutability": "nonpayable",
      "type": "constructor"
    },
    {
      "anonymous": false,
      "inputs": [
        {
          "indexed": true,
          "internalType": "address",
          "name": "_stakeholder",
          "type": "address"
        },
        {
          "indexed": false,
          "internalType": "uint256",
          "name": "_amount",
          "type": "uint256"
        }
      ],
      "name": "Claim",
      "type": "event"
    },
    {
      "anonymous": false,
      "inputs": [
        {
          "indexed": true,
          "internalType": "address",
          "name": "_stakeholder",
          "type": "address"
        },
        {
          "indexed": false,
          "internalType": "uint256",
          "name": "_amount",
          "type": "uint256"
        }
      ],
      "name": "Deposit",
      "type": "event"
    },
    {
      "anonymous": false,
      "inputs": [
        {
          "indexed": true,
          "internalType": "address",
          "name": "previousOwner",
          "type": "address"
        },
        {
          "indexed": true,
          "internalType": "address",
          "name": "newOwner",
          "type": "address"
        }
      ],
      "name": "OwnershipTransferred",
      "type": "event"
    },
    {
      "inputs": [],
      "name": "owner",
      "outputs": [
        {
          "internalType": "address",
          "name": "",
          "type": "address"
        }
      ],
      "stateMutability": "view",
      "type": "function"
    },
    {
      "inputs": [],
      "name": "renounceOwnership",
      "outputs": [],
      "stateMutability": "nonpayable",
      "type": "function"
    },
    {
      "inputs": [],
      "name": "stakeholderCount",
      "outputs": [
        {
          "internalType": "uint256",
          "name": "",
          "type": "uint256"
        }
      ],
      "stateMutability": "view",
      "type": "function"
    },
    {
      "inputs": [
        {
          "internalType": "address",
          "name": "",
          "type": "address"
        }
      ],
      "name": "stakeholders",
      "outputs": [
        {
          "internalType": "address",
          "name": "addr",
          "type": "address"
        },
        {
          "internalType": "uint256",
          "name": "level",
          "type": "uint256"
        },
        {
          "internalType": "uint256",
          "name": "rebate",
          "type": "uint256"
        }
      ],
      "stateMutability": "view",
      "type": "function"
    },
    {
      "inputs": [],
      "name": "startTime",
      "outputs": [
        {
          "internalType": "uint256",
          "name": "",
          "type": "uint256"
        }
      ],
      "stateMutability": "view",
      "type": "function"
    },
    {
      "inputs": [
        {
          "internalType": "address",
          "name": "newOwner",
          "type": "address"
        }
      ],
      "name": "transferOwnership",
      "outputs": [],
      "stateMutability": "nonpayable",
      "type": "function"
    },
    {
      "inputs": [
        {
          "internalType": "uint256",
          "name": "_startTime",
          "type": "uint256"
        }
      ],
      "name": "setStartTime",
      "outputs": [],
      "stateMutability": "nonpayable",
      "type": "function"
    },
    {
      "inputs": [],
      "name": "contractBalance",
      "outputs": [
        {
          "internalType": "uint256",
          "name": "",
          "type": "uint256"
        }
      ],
      "stateMutability": "view",
      "type": "function"
    },
    {
      "inputs": [
        {
          "internalType": "address",
          "name": "_stakeholder",
          "type": "address"
        }
      ],
      "name": "stakesOf",
      "outputs": [
        {
          "components": [
            {
              "internalType": "uint256",
              "name": "amount",
              "type": "uint256"
            },
            {
              "internalType": "uint256",
              "name": "rewardRate",
              "type": "uint256"
            },
            {
              "internalType": "uint256",
              "name": "claimed",
              "type": "uint256"
            },
            {
              "internalType": "uint256",
              "name": "lastClaimDate",
              "type": "uint256"
            }
          ],
          "internalType": "struct MushroomStaking.Stake[]",
          "name": "",
          "type": "tuple[]"
        }
      ],
      "stateMutability": "view",
      "type": "function"
    },
    {
      "inputs": [
        {
          "internalType": "address",
          "name": "_stakeholder",
          "type": "address"
        }
      ],
      "name": "rewardRateOf",
      "outputs": [
        {
          "internalType": "uint256",
          "name": "",
          "type": "uint256"
        }
      ],
      "stateMutability": "view",
      "type": "function"
    },
    {
      "inputs": [
        {
          "internalType": "address",
          "name": "_stakeholder",
          "type": "address"
        }
      ],
      "name": "isStakeholder",
      "outputs": [
        {
          "internalType": "bool",
          "name": "",
          "type": "bool"
        }
      ],
      "stateMutability": "view",
      "type": "function"
    },
    {
      "inputs": [
        {
          "internalType": "address",
          "name": "_referrer",
          "type": "address"
        }
      ],
      "name": "deposit",
      "outputs": [],
      "stateMutability": "payable",
      "type": "function"
    },
    {
      "inputs": [],
      "name": "claim",
      "outputs": [],
      "stateMutability": "payable",
      "type": "function"
    }
  ],
  "bytecode": "0x608060405234801561001057600080fd5b5061001a33610035565b60018055600280546001600160a01b03191633179055610085565b600080546001600160a01b038381166001600160a01b0319831681178455604051919092169283917f8be0079c531659141344cd1fd0a4f28419497f9722a3daafe3b4186f6b6457e09190a35050565b610f6b806100946000396000f3fe6080604052600436106100c25760003560e01c80638b7afe2e1161007f578063d8319ef311610059578063d8319ef314610226578063ef037b901461023c578063f2fde38b1461026c578063f340fa011461028c57600080fd5b80638b7afe2e146101805780638da5cb5b14610193578063c07cfca9146101bb57600080fd5b806333b69c4c146100c75780633e0a322d146100fd5780634e71d92d1461011f5780635b09c87614610127578063715018a61461015557806378e979251461016a575b600080fd5b3480156100d357600080fd5b506100e76100e2366004610c7e565b61029f565b6040516100f49190610ca7565b60405180910390f35b34801561010957600080fd5b5061011d610118366004610d0b565b61036a565b005b61011d6103e9565b34801561013357600080fd5b50610147610142366004610c7e565b6106e7565b6040519081526020016100f4565b34801561016157600080fd5b5061011d610739565b34801561017657600080fd5b5061014760035481565b34801561018c57600080fd5b5047610147565b34801561019f57600080fd5b506000546040516001600160a01b0390911681526020016100f4565b3480156101c757600080fd5b506102016101d6366004610c7e565b6005602052600090815260409020805460018201546002909201546001600160a01b03909116919083565b604080516001600160a01b0390941684526020840192909252908201526060016100f4565b34801561023257600080fd5b5061014760045481565b34801561024857600080fd5b5061025c610257366004610c7e565b61076f565b60405190151581526020016100f4565b34801561027857600080fd5b5061011d610287366004610c7e565b61078f565b61011d61029a366004610c7e565b61082a565b60606102aa3361076f565b6102cf5760405162461bcd60e51b81526004016102c690610d24565b60405180910390fd5b6001600160a01b038216600090815260056020908152604080832060030180548251818502810185019093528083529193909284015b8282101561035f578382906000526020600020906004020160405180608001604052908160008201548152602001600182015481526020016002820154815260200160038201548152505081526020019060010190610305565b505050509050919050565b6000546001600160a01b031633146103945760405162461bcd60e51b81526004016102c690610d5b565b600354156103e45760405162461bcd60e51b815260206004820152601860248201527f6576656e742068617320616c7265616479206f70656e6564000000000000000060448201526064016102c6565b600355565b60026001540361043b5760405162461bcd60e51b815260206004820152601f60248201527f5265656e7472616e637947756172643a207265656e7472616e742063616c6c0060448201526064016102c6565b60026001556104493361076f565b6104655760405162461bcd60e51b81526004016102c690610d24565b60035442116104b65760405162461bcd60e51b815260206004820152601860248201527f6576656e74206973206e6f74207374617274656420796574000000000000000060448201526064016102c6565b60008060005b3360009081526005602052604090206003015481101561060f5733600090815260056020526040812060030180546105459190849081106104ff576104ff610d90565b9060005260206000209060040201604051806080016040529081600082015481526020016001820154815260200160028201548152602001600382015481525050610b6b565b9050600061055282610bb6565b905061055e8183610dbc565b33600090815260056020526040902060030180548590811061058257610582610d90565b906000526020600020906004020160020160008282546105a29190610dd3565b90915550503360009081526005602052604090206003018054429190859081106105ce576105ce610d90565b60009182526020909120600360049092020101556105ec8286610dd3565b94506105f88185610dd3565b93505050808061060790610deb565b9150506104bc565b5033600090815260056020526040812060020180549082905590816106348486610dbc565b61063e9190610dd3565b6002546040519192506001600160a01b03169084156108fc029085906000818181858888f19350505050158015610679573d6000803e3d6000fd5b50604051339082156108fc029083906000818181858888f193505050501580156106a7573d6000803e3d6000fd5b5060405181815233907f47cee97cb7acd717b3c0aa1435d004cd5b3c8c57d70dbceb4e4458bbd60e39d49060200160405180910390a25050600180555050565b60006106f23361076f565b61070e5760405162461bcd60e51b81526004016102c690610d24565b6001600160a01b03821660009081526005602052604090206001015461073390610bc5565b92915050565b6000546001600160a01b031633146107635760405162461bcd60e51b81526004016102c690610d5b565b61076d6000610c09565b565b6001600160a01b0390811660009081526005602052604090205416151590565b6000546001600160a01b031633146107b95760405162461bcd60e51b81526004016102c690610d5b565b6001600160a01b03811661081e5760405162461bcd60e51b815260206004820152602660248201527f4f776e61626c653a206e6577206f776e657220697320746865207a65726f206160448201526564647265737360d01b60648201526084016102c6565b61082781610c09565b50565b60026001540361087c5760405162461bcd60e51b815260206004820152601f60248201527f5265656e7472616e637947756172643a207265656e7472616e742063616c6c0060448201526064016102c6565b60026001556003546108d05760405162461bcd60e51b815260206004820152601760248201527f6576656e74206973206e6f74206f70656e65642079657400000000000000000060448201526064016102c6565b33600090815260056020526040902060030154601410156109335760405162461bcd60e51b815260206004820152601e60248201527f6d6178696d756d207374616b6520636f756e742069732072656163686564000060448201526064016102c6565b61093c3361076f565b6109755733600081815260056020526040812080546001600160a01b031916909217909155600480549161096f83610deb565b91905055505b600061098034610bb6565b9050600061098e8234610dbc565b33600090815260056020526040812060010154919250906109ae90610bc5565b60035490915042908110156109c257506003545b3360008181526005602081815260408084208151608081018352898152808401898152928101868152606082018981526003808501805460018181018355918b52888b20955160049091029095019485559551848701559151600284015551910155948452919052909101805491610a3983610deb565b90915550859050336001600160a01b03821603610a5e57506002546001600160a01b03165b610a678161076f565b80610a7f57506002546001600160a01b038281169116145b15610aef57610a8d84610c59565b3360009081526005602052604081206002018054909190610aaf908490610dd3565b90915550610abe905084610c59565b6001600160a01b03821660009081526005602052604081206002018054909190610ae9908490610dd3565b90915550505b6002546040516001600160a01b039091169086156108fc029087906000818181858888f19350505050158015610b29573d6000803e3d6000fd5b5060405134815233907fe1fffcc4923d04b559f4d29a8bfc6cda04eb5b0d3c460751c2402c5c5cc9109c9060200160405180910390a250506001805550505050565b60006301e13380606483602001518460000151856060015142610b8e9190610dbc565b610b989190610e04565b610ba29190610e04565b610bac9190610e23565b6107339190610e23565b60006064610bac836002610e04565b600080610bd3836064610f29565b610bde846065610f29565b610bea90610e42610e04565b610bf49190610e23565b9050610c028161111c610c68565b9392505050565b600080546001600160a01b038381166001600160a01b0319831681178455604051919092169283917f8be0079c531659141344cd1fd0a4f28419497f9722a3daafe3b4186f6b6457e09190a35050565b60006064610bac836005610e04565b6000818310610c775781610c02565b5090919050565b600060208284031215610c9057600080fd5b81356001600160a01b0381168114610c0257600080fd5b602080825282518282018190526000919060409081850190868401855b82811015610cfe57815180518552868101518786015285810151868601526060908101519085015260809093019290850190600101610cc4565b5091979650505050505050565b600060208284031215610d1d57600080fd5b5035919050565b6020808252601d908201527f63616c6c6572206973206e6f7420746865207374616b65686f6c646572000000604082015260600190565b6020808252818101527f4f776e61626c653a2063616c6c6572206973206e6f7420746865206f776e6572604082015260600190565b634e487b7160e01b600052603260045260246000fd5b634e487b7160e01b600052601160045260246000fd5b600082821015610dce57610dce610da6565b500390565b60008219821115610de657610de6610da6565b500190565b600060018201610dfd57610dfd610da6565b5060010190565b6000816000190483118215151615610e1e57610e1e610da6565b500290565b600082610e4057634e487b7160e01b600052601260045260246000fd5b500490565b600181815b80851115610e80578160001904821115610e6657610e66610da6565b80851615610e7357918102915b93841c9390800290610e4a565b509250929050565b600082610e9757506001610733565b81610ea457506000610733565b8160018114610eba5760028114610ec457610ee0565b6001915050610733565b60ff841115610ed557610ed5610da6565b50506001821b610733565b5060208310610133831016604e8410600b8410161715610f03575081810a610733565b610f0d8383610e45565b8060001904821115610f2157610f21610da6565b029392505050565b6000610c028383610e8856fea2646970667358221220b916fb747efd6a2b660b98dc551f24277724c690b699b806e31118b35dd957ac64736f6c634300080d0033",
  "immutableReferences": {},
  "source": "// SPDX-License-Identifier: MIT\npragma solidity ^0.8.0;\n\nimport \"@openzeppelin/contracts/access/Ownable.sol\";\nimport \"@openzeppelin/contracts/security/ReentrancyGuard.sol\";\n\ncontract MushroomStaking is Ownable, ReentrancyGuard {\n    address private _owner;\n    uint256 constant MIN_REWARD_RATE = 365 * 10;\n    uint256 constant MAX_REWARD_RATE = 365 * 12;\n    uint256 public startTime;\n    uint256 public stakeholderCount;\n    mapping(address => Stakeholder) public stakeholders;\n\n    struct Stakeholder {\n        address addr;\n        uint256 level;\n        uint256 rebate;\n        Stake[] stakes;\n    }\n\n    struct Stake {\n        uint256 amount;\n        uint256 rewardRate;\n        uint256 claimed;\n        uint256 lastClaimDate;\n    }\n\n    constructor() {\n        _owner = msg.sender;\n    }\n\n    modifier onlyStakeholder() {\n        require(isStakeholder(msg.sender), \"caller is not the stakeholder\");\n        _;\n    }\n\n    modifier onlyOpened() {\n        require(startTime > 0, \"event is not opened yet\");\n        _;\n    }\n\n    modifier onlyStarted() {\n        require(block.timestamp > startTime, \"event is not started yet\");\n        _;\n    }\n\n    function setStartTime(uint256 _startTime)\n        external\n        onlyOwner\n    {\n        require(startTime == 0, \"event has already opened\");\n        startTime = _startTime;\n    }\n\n    function contractBalance()\n        external\n        view\n        returns (uint256)\n    {\n        return address(this).balance;\n    }\n\n    function stakesOf(address _stakeholder)\n        external\n        view\n        onlyStakeholder\n        returns (Stake[] memory)\n    {\n        return stakeholders[_stakeholder].stakes;\n    }\n\n    function rewardRateOf(address _stakeholder)\n        external\n        view\n        onlyStakeholder\n        returns (uint256)\n    {\n        return calculateRewardRate(stakeholders[_stakeholder].level);\n    }\n\n    function isStakeholder(address _stakeholder)\n        public\n        view\n        returns (bool)\n    {\n        return stakeholders[_stakeholder].addr != address(0);\n    }\n\n    function deposit(address _referrer)\n        public\n        payable\n        nonReentrant\n        onlyOpened\n    {\n        require(stakeholders[msg.sender].stakes.length <= 20, \"maximum stake count is reached\");\n        if (!isStakeholder(msg.sender)) {\n            stakeholders[msg.sender].addr = msg.sender;\n            stakeholderCount++;\n        }\n        uint256 _fee = calculateFee(msg.value);\n        uint256 _amount = msg.value - _fee;\n        uint256 _rewardRate = calculateRewardRate(stakeholders[msg.sender].level);\n        uint256 _lastClaimDate = block.timestamp;\n        if (block.timestamp < startTime) {\n            _lastClaimDate = startTime;\n        }\n        stakeholders[msg.sender].stakes.push(Stake({\n            amount: _amount,\n            rewardRate: _rewardRate,\n            claimed: 0,\n            lastClaimDate: _lastClaimDate\n        }));\n        stakeholders[msg.sender].level++;\n        address _ref = _referrer;\n        if (_referrer == msg.sender) {\n            _ref = _owner;\n        }\n        if (isStakeholder(_ref) || _ref == _owner) {\n            stakeholders[msg.sender].rebate += calculateRebate(_amount);\n            stakeholders[_ref].rebate += calculateRebate(_amount);\n        }\n        payable(_owner).transfer(_fee);\n        emit Deposit(msg.sender, msg.value);\n    }\n\n    function claim()\n        public\n        payable\n        nonReentrant\n        onlyStakeholder\n        onlyStarted\n    {\n        uint256 _totalRewards;\n        uint256 _totalFees;\n        for (uint256 i = 0; i < stakeholders[msg.sender].stakes.length; i++) {\n            uint256 _reward = calculateReward(stakeholders[msg.sender].stakes[i]);\n            uint256 _fee = calculateFee(_reward);\n            stakeholders[msg.sender].stakes[i].claimed += _reward - _fee;\n            stakeholders[msg.sender].stakes[i].lastClaimDate = block.timestamp;\n            _totalRewards += _reward;\n            _totalFees += _fee;\n        }\n        uint256 _rebate = stakeholders[msg.sender].rebate;\n        stakeholders[msg.sender].rebate = 0;\n        uint256 _amount = _totalRewards - _totalFees + _rebate;\n        payable(_owner).transfer(_totalFees);\n        payable(msg.sender).transfer(_amount);\n        emit Claim(msg.sender, _amount);\n    }\n\n    function calculateReward(Stake memory _stake)\n        private\n        view\n        returns (uint256)\n    {\n        return (block.timestamp - _stake.lastClaimDate) * _stake.amount * _stake.rewardRate / 100 / 365 days;\n    }\n\n    function calculateRewardRate(uint256 _level)\n        private\n        pure\n        returns (uint256)\n    {\n        uint256 _rewardRate = MIN_REWARD_RATE * (101 ** _level) / (100 ** _level);\n        return min(_rewardRate, MAX_REWARD_RATE);\n    }\n\n    function calculateRebate(uint256 _amount)\n        private\n        pure\n        returns (uint256)\n    {\n        return _amount * 5 / 100;\n    }\n\n    function calculateFee(uint256 _amount)\n        private\n        pure\n        returns (uint256)\n    {\n        return _amount * 2 / 100;\n    }\n\n    function min(uint256 _a, uint256 _b)\n        private\n        pure\n        returns (uint256)\n    {\n        return _a < _b ? _a : _b;\n    }\n\n    event Deposit(address indexed _stakeholder, uint256 _amount);\n    event Claim(address indexed _stakeholder, uint256 _amount);\n}\n",
  "sourcePath": "/Users/memochou/Projects/mushroom-staking/contracts/MushroomStaking.sol",
  "compiler": {
    "name": "solc",
    "version": "0.8.13+commit.abaa5c0e.Emscripten.clang"
  },
  "schemaVersion": "3.4.7",
  "updatedAt": "2022-06-15T15:38:18.325Z",
  "devdoc": {
    "kind": "dev",
    "methods": {
      "owner()": {
        "details": "Returns the address of the current owner."
      },
      "renounceOwnership()": {
        "details": "Leaves the contract without owner. It will not be possible to call `onlyOwner` functions anymore. Can only be called by the current owner. NOTE: Renouncing ownership will leave the contract without an owner, thereby removing any functionality that is only available to the owner."
      },
      "transferOwnership(address)": {
        "details": "Transfers ownership of the contract to a new account (`newOwner`). Can only be called by the current owner."
      }
    },
    "version": 1
  },
  "userdoc": {
    "kind": "user",
    "methods": {},
    "version": 1
  }
}