{
  "contractName": "MushroomStaking",
  "abi": [
    {
      "inputs": [],
      "stateMutability": "nonpayable",
      "type": "constructor"
    },
    {
      "anonymous": false,
      "inputs": [
        {
          "indexed": true,
          "internalType": "address",
          "name": "_stakeholder",
          "type": "address"
        },
        {
          "indexed": false,
          "internalType": "uint256",
          "name": "_amount",
          "type": "uint256"
        }
      ],
      "name": "Claim",
      "type": "event"
    },
    {
      "anonymous": false,
      "inputs": [
        {
          "indexed": true,
          "internalType": "address",
          "name": "_stakeholder",
          "type": "address"
        },
        {
          "indexed": false,
          "internalType": "uint256",
          "name": "_amount",
          "type": "uint256"
        }
      ],
      "name": "Deposit",
      "type": "event"
    },
    {
      "anonymous": false,
      "inputs": [
        {
          "indexed": true,
          "internalType": "address",
          "name": "previousOwner",
          "type": "address"
        },
        {
          "indexed": true,
          "internalType": "address",
          "name": "newOwner",
          "type": "address"
        }
      ],
      "name": "OwnershipTransferred",
      "type": "event"
    },
    {
      "inputs": [],
      "name": "owner",
      "outputs": [
        {
          "internalType": "address",
          "name": "",
          "type": "address"
        }
      ],
      "stateMutability": "view",
      "type": "function",
      "constant": true
    },
    {
      "inputs": [],
      "name": "renounceOwnership",
      "outputs": [],
      "stateMutability": "nonpayable",
      "type": "function"
    },
    {
      "inputs": [],
      "name": "stakeholderCount",
      "outputs": [
        {
          "internalType": "uint256",
          "name": "",
          "type": "uint256"
        }
      ],
      "stateMutability": "view",
      "type": "function",
      "constant": true
    },
    {
      "inputs": [
        {
          "internalType": "address",
          "name": "",
          "type": "address"
        }
      ],
      "name": "stakeholders",
      "outputs": [
        {
          "internalType": "address",
          "name": "addr",
          "type": "address"
        },
        {
          "internalType": "uint256",
          "name": "level",
          "type": "uint256"
        }
      ],
      "stateMutability": "view",
      "type": "function",
      "constant": true
    },
    {
      "inputs": [],
      "name": "startTime",
      "outputs": [
        {
          "internalType": "uint256",
          "name": "",
          "type": "uint256"
        }
      ],
      "stateMutability": "view",
      "type": "function",
      "constant": true
    },
    {
      "inputs": [
        {
          "internalType": "address",
          "name": "newOwner",
          "type": "address"
        }
      ],
      "name": "transferOwnership",
      "outputs": [],
      "stateMutability": "nonpayable",
      "type": "function"
    },
    {
      "inputs": [
        {
          "internalType": "uint256",
          "name": "_startTime",
          "type": "uint256"
        }
      ],
      "name": "setStartTime",
      "outputs": [],
      "stateMutability": "nonpayable",
      "type": "function"
    },
    {
      "inputs": [],
      "name": "contractBalance",
      "outputs": [
        {
          "internalType": "uint256",
          "name": "",
          "type": "uint256"
        }
      ],
      "stateMutability": "view",
      "type": "function",
      "constant": true
    },
    {
      "inputs": [
        {
          "internalType": "address",
          "name": "_stakeholder",
          "type": "address"
        }
      ],
      "name": "stakesOf",
      "outputs": [
        {
          "components": [
            {
              "internalType": "uint256",
              "name": "amount",
              "type": "uint256"
            },
            {
              "internalType": "uint256",
              "name": "rewardRate",
              "type": "uint256"
            },
            {
              "internalType": "uint256",
              "name": "claimed",
              "type": "uint256"
            },
            {
              "internalType": "uint256",
              "name": "lastClaimDate",
              "type": "uint256"
            }
          ],
          "internalType": "struct MushroomStaking.Stake[]",
          "name": "",
          "type": "tuple[]"
        }
      ],
      "stateMutability": "view",
      "type": "function",
      "constant": true
    },
    {
      "inputs": [
        {
          "internalType": "address",
          "name": "_stakeholder",
          "type": "address"
        }
      ],
      "name": "rewardRateOf",
      "outputs": [
        {
          "internalType": "uint256",
          "name": "",
          "type": "uint256"
        }
      ],
      "stateMutability": "view",
      "type": "function",
      "constant": true
    },
    {
      "inputs": [
        {
          "internalType": "address",
          "name": "_stakeholder",
          "type": "address"
        }
      ],
      "name": "isStakeholder",
      "outputs": [
        {
          "internalType": "bool",
          "name": "",
          "type": "bool"
        }
      ],
      "stateMutability": "view",
      "type": "function",
      "constant": true
    },
    {
      "inputs": [],
      "name": "deposit",
      "outputs": [],
      "stateMutability": "payable",
      "type": "function",
      "payable": true
    },
    {
      "inputs": [],
      "name": "claim",
      "outputs": [],
      "stateMutability": "payable",
      "type": "function",
      "payable": true
    }
  ],
  "bytecode": "0x608060405234801561001057600080fd5b5061001a33610035565b60018055600280546001600160a01b03191633179055610085565b600080546001600160a01b038381166001600160a01b0319831681178455604051919092169283917f8be0079c531659141344cd1fd0a4f28419497f9722a3daafe3b4186f6b6457e09190a35050565b610d87806100946000396000f3fe6080604052600436106100c25760003560e01c80638b7afe2e1161007f578063d0e30db011610059578063d0e30db01461021a578063d8319ef314610222578063ef037b9014610238578063f2fde38b1461026857600080fd5b80638b7afe2e146101805780638da5cb5b14610193578063c07cfca9146101bb57600080fd5b806333b69c4c146100c75780633e0a322d146100fd5780634e71d92d1461011f5780635b09c87614610127578063715018a61461015557806378e979251461016a575b600080fd5b3480156100d357600080fd5b506100e76100e2366004610a9a565b610288565b6040516100f49190610ac3565b60405180910390f35b34801561010957600080fd5b5061011d610118366004610b27565b610353565b005b61011d6103d2565b34801561013357600080fd5b50610147610142366004610a9a565b610673565b6040519081526020016100f4565b34801561016157600080fd5b5061011d6106c5565b34801561017657600080fd5b5061014760035481565b34801561018c57600080fd5b5047610147565b34801561019f57600080fd5b506000546040516001600160a01b0390911681526020016100f4565b3480156101c757600080fd5b506101fb6101d6366004610a9a565b600560205260009081526040902080546001909101546001600160a01b039091169082565b604080516001600160a01b0390931683526020830191909152016100f4565b61011d6106fb565b34801561022e57600080fd5b5061014760045481565b34801561024457600080fd5b50610258610253366004610a9a565b6108db565b60405190151581526020016100f4565b34801561027457600080fd5b5061011d610283366004610a9a565b6108fb565b6060610293336108db565b6102b85760405162461bcd60e51b81526004016102af90610b40565b60405180910390fd5b6001600160a01b038216600090815260056020908152604080832060020180548251818502810185019093528083529193909284015b828210156103485783829060005260206000209060040201604051806080016040529081600082015481526020016001820154815260200160028201548152602001600382015481525050815260200190600101906102ee565b505050509050919050565b6000546001600160a01b0316331461037d5760405162461bcd60e51b81526004016102af90610b77565b600354156103cd5760405162461bcd60e51b815260206004820152601860248201527f6576656e742068617320616c7265616479206f70656e6564000000000000000060448201526064016102af565b600355565b6002600154036104245760405162461bcd60e51b815260206004820152601f60248201527f5265656e7472616e637947756172643a207265656e7472616e742063616c6c0060448201526064016102af565b6002600155610432336108db565b61044e5760405162461bcd60e51b81526004016102af90610b40565b600354421161049f5760405162461bcd60e51b815260206004820152601860248201527f6576656e74206973206e6f74207374617274656420796574000000000000000060448201526064016102af565b60008060005b336000908152600560205260409020600201548110156105f857336000908152600560205260408120600201805461052e9190849081106104e8576104e8610bac565b9060005260206000209060040201604051806080016040529081600082015481526020016001820154815260200160028201548152602001600382015481525050610996565b9050600061053b826109e1565b90506105478183610bd8565b33600090815260056020526040902060020180548590811061056b5761056b610bac565b9060005260206000209060040201600201600082825461058b9190610bef565b90915550503360009081526005602052604090206002018054429190859081106105b7576105b7610bac565b60009182526020909120600360049092020101556105d58286610bef565b94506105e18185610bef565b9350505080806105f090610c07565b9150506104a5565b50336108fc6106078385610bd8565b6040518115909202916000818181858888f1935050505015801561062f573d6000803e3d6000fd5b506002546040516001600160a01b039091169082156108fc029083906000818181858888f1935050505015801561066a573d6000803e3d6000fd5b50506001805550565b600061067e336108db565b61069a5760405162461bcd60e51b81526004016102af90610b40565b6001600160a01b0382166000908152600560205260409020600101546106bf906109f0565b92915050565b6000546001600160a01b031633146106ef5760405162461bcd60e51b81526004016102af90610b77565b6106f96000610a34565b565b60026001540361074d5760405162461bcd60e51b815260206004820152601f60248201527f5265656e7472616e637947756172643a207265656e7472616e742063616c6c0060448201526064016102af565b60026001556003546107a15760405162461bcd60e51b815260206004820152601760248201527f6576656e74206973206e6f74206f70656e65642079657400000000000000000060448201526064016102af565b6107aa336108db565b6107e35733600081815260056020526040812080546001600160a01b03191690921790915560048054916107dd83610c07565b91905055505b60006107ee346109e1565b905060006107fc8234610bd8565b336000908152600560205260408120600101549192509061081c906109f0565b600354909150429081101561083057506003545b3360009081526005602090815260408083208151608081018352878152808401878152818401868152606083018881526002948501805460018082018355918a529789209451600490980290940196875591519286019290925590518483015551600390930192909255905490516001600160a01b03909116916108fc871502918791818181858888f193505050501580156108d0573d6000803e3d6000fd5b505060018055505050565b6001600160a01b0390811660009081526005602052604090205416151590565b6000546001600160a01b031633146109255760405162461bcd60e51b81526004016102af90610b77565b6001600160a01b03811661098a5760405162461bcd60e51b815260206004820152602660248201527f4f776e61626c653a206e6577206f776e657220697320746865207a65726f206160448201526564647265737360d01b60648201526084016102af565b61099381610a34565b50565b60006301e133806064836020015184600001518560600151426109b99190610bd8565b6109c39190610c20565b6109cd9190610c20565b6109d79190610c3f565b6106bf9190610c3f565b600060646109d7836001610c20565b6000806109fe836064610d45565b610a09846065610d45565b610a1590610e42610c20565b610a1f9190610c3f565b9050610a2d8161111c610a84565b9392505050565b600080546001600160a01b038381166001600160a01b0319831681178455604051919092169283917f8be0079c531659141344cd1fd0a4f28419497f9722a3daafe3b4186f6b6457e09190a35050565b6000818310610a935781610a2d565b5090919050565b600060208284031215610aac57600080fd5b81356001600160a01b0381168114610a2d57600080fd5b602080825282518282018190526000919060409081850190868401855b82811015610b1a57815180518552868101518786015285810151868601526060908101519085015260809093019290850190600101610ae0565b5091979650505050505050565b600060208284031215610b3957600080fd5b5035919050565b6020808252601d908201527f63616c6c6572206973206e6f7420746865207374616b65686f6c646572000000604082015260600190565b6020808252818101527f4f776e61626c653a2063616c6c6572206973206e6f7420746865206f776e6572604082015260600190565b634e487b7160e01b600052603260045260246000fd5b634e487b7160e01b600052601160045260246000fd5b600082821015610bea57610bea610bc2565b500390565b60008219821115610c0257610c02610bc2565b500190565b600060018201610c1957610c19610bc2565b5060010190565b6000816000190483118215151615610c3a57610c3a610bc2565b500290565b600082610c5c57634e487b7160e01b600052601260045260246000fd5b500490565b600181815b80851115610c9c578160001904821115610c8257610c82610bc2565b80851615610c8f57918102915b93841c9390800290610c66565b509250929050565b600082610cb3575060016106bf565b81610cc0575060006106bf565b8160018114610cd65760028114610ce057610cfc565b60019150506106bf565b60ff841115610cf157610cf1610bc2565b50506001821b6106bf565b5060208310610133831016604e8410600b8410161715610d1f575081810a6106bf565b610d298383610c61565b8060001904821115610d3d57610d3d610bc2565b029392505050565b6000610a2d8383610ca456fea26469706673582212209a30caed45712cc53e60800d4687212a385fdf7ce640dff57fc38b4e583f6cd964736f6c634300080d0033",
  "immutableReferences": {},
  "source": "// SPDX-License-Identifier: MIT\npragma solidity ^0.8.0;\n\nimport \"@openzeppelin/contracts/access/Ownable.sol\";\nimport \"@openzeppelin/contracts/security/ReentrancyGuard.sol\";\n\ncontract MushroomStaking is Ownable, ReentrancyGuard {\n    address private _owner;\n    uint256 constant MIN_REWARD_RATE = 365 * 10;\n    uint256 constant MAX_REWARD_RATE = 365 * 12;\n    uint256 public startTime;\n    uint256 public stakeholderCount;\n    mapping(address => Stakeholder) public stakeholders;\n\n    struct Stakeholder {\n        address addr;\n        uint256 level;\n        Stake[] stakes;\n    }\n\n    struct Stake {\n        uint256 amount;\n        uint256 rewardRate;\n        uint256 claimed;\n        uint256 lastClaimDate;\n    }\n\n    constructor() {\n        _owner = msg.sender;\n    }\n\n    modifier onlyStakeholder() {\n        require(isStakeholder(msg.sender), \"caller is not the stakeholder\");\n        _;\n    }\n\n    modifier onlyOpened() {\n        require(startTime > 0, \"event is not opened yet\");\n        _;\n    }\n\n    modifier onlyStarted() {\n        require(block.timestamp > startTime, \"event is not started yet\");\n        _;\n    }\n\n    function setStartTime(uint256 _startTime)\n        external\n        onlyOwner\n    {\n        require(startTime == 0, \"event has already opened\");\n        startTime = _startTime;\n    }\n\n    function contractBalance()\n        external\n        view\n        returns (uint256)\n    {\n        return address(this).balance;\n    }\n\n    function stakesOf(address _stakeholder)\n        external\n        view\n        onlyStakeholder\n        returns (Stake[] memory)\n    {\n        return stakeholders[_stakeholder].stakes;\n    }\n\n    function rewardRateOf(address _stakeholder)\n        external\n        view\n        onlyStakeholder\n        returns (uint256)\n    {\n        return calculateRewardRate(stakeholders[_stakeholder].level);\n    }\n\n    function isStakeholder(address _stakeholder)\n        public\n        view\n        returns (bool)\n    {\n        return stakeholders[_stakeholder].addr != address(0);\n    }\n\n    function deposit()\n        public\n        payable\n        nonReentrant\n        onlyOpened\n    {\n        if (!isStakeholder(msg.sender)) {\n            stakeholders[msg.sender].addr = msg.sender;\n            stakeholderCount++;\n        }\n        uint256 _fee = calculateFee(msg.value);\n        uint256 _amount = msg.value - _fee;\n        uint256 _rewardRate = calculateRewardRate(stakeholders[msg.sender].level);\n        uint256 _lastClaimDate = block.timestamp;\n        if (block.timestamp < startTime) {\n            _lastClaimDate = startTime;\n        }\n        stakeholders[msg.sender].stakes.push(Stake({\n            amount: _amount,\n            rewardRate: _rewardRate,\n            claimed: 0,\n            lastClaimDate: _lastClaimDate\n        }));\n        payable(_owner).transfer(_fee);\n    }\n\n    function claim()\n        public\n        payable\n        nonReentrant\n        onlyStakeholder\n        onlyStarted\n    {\n        uint256 _totalRewards;\n        uint256 _totalFees;\n        for (uint256 i = 0; i < stakeholders[msg.sender].stakes.length; i++) {\n            uint256 _reward = calculateReward(stakeholders[msg.sender].stakes[i]);\n            uint256 _fee = calculateFee(_reward);\n            stakeholders[msg.sender].stakes[i].claimed += _reward - _fee;\n            stakeholders[msg.sender].stakes[i].lastClaimDate = block.timestamp;\n            _totalRewards += _reward;\n            _totalFees += _fee;\n        }\n        payable(msg.sender).transfer(_totalRewards - _totalFees);\n        payable(_owner).transfer(_totalFees);\n    }\n\n    function calculateReward(Stake memory _stake)\n        private\n        view\n        returns (uint256)\n    {\n        return (block.timestamp - _stake.lastClaimDate) * _stake.amount * _stake.rewardRate / 100 / 365 days;\n    }\n\n    function calculateRewardRate(uint256 _level)\n        private\n        pure\n        returns (uint256)\n    {\n        uint256 _rewardRate = MIN_REWARD_RATE * (101 ** _level) / (100 ** _level);\n        return min(_rewardRate, MAX_REWARD_RATE);\n    }\n\n    function calculateFee(uint256 _amount)\n        private\n        pure\n        returns (uint256)\n    {\n        return _amount * 1 / 100;\n    }\n\n    function min(uint256 _a, uint256 _b)\n        private\n        pure\n        returns (uint256)\n    {\n        return _a < _b ? _a : _b;\n    }\n\n    event Deposit(address indexed _stakeholder, uint256 _amount);\n    event Claim(address indexed _stakeholder, uint256 _amount);\n}\n",
  "sourcePath": "/Users/memochou/Projects/mushroom-staking/contracts/MushroomStaking.sol",
  "compiler": {
    "name": "solc",
    "version": "0.8.13+commit.abaa5c0e.Emscripten.clang"
  },
  "schemaVersion": "3.4.7",
  "updatedAt": "2022-06-14T21:23:05.111Z",
  "networkType": "ethereum",
  "devdoc": {
    "kind": "dev",
    "methods": {
      "owner()": {
        "details": "Returns the address of the current owner."
      },
      "renounceOwnership()": {
        "details": "Leaves the contract without owner. It will not be possible to call `onlyOwner` functions anymore. Can only be called by the current owner. NOTE: Renouncing ownership will leave the contract without an owner, thereby removing any functionality that is only available to the owner."
      },
      "transferOwnership(address)": {
        "details": "Transfers ownership of the contract to a new account (`newOwner`). Can only be called by the current owner."
      }
    },
    "version": 1
  },
  "userdoc": {
    "kind": "user",
    "methods": {},
    "version": 1
  }
}