{
  "contractName": "ParticleStaking",
  "abi": [
    {
      "inputs": [],
      "stateMutability": "nonpayable",
      "type": "constructor"
    },
    {
      "anonymous": false,
      "inputs": [
        {
          "indexed": true,
          "internalType": "address",
          "name": "_stakeholder",
          "type": "address"
        },
        {
          "indexed": false,
          "internalType": "uint256",
          "name": "_amount",
          "type": "uint256"
        }
      ],
      "name": "Claim",
      "type": "event"
    },
    {
      "anonymous": false,
      "inputs": [
        {
          "indexed": true,
          "internalType": "address",
          "name": "_stakeholder",
          "type": "address"
        },
        {
          "indexed": false,
          "internalType": "uint256",
          "name": "_amount",
          "type": "uint256"
        }
      ],
      "name": "Deposit",
      "type": "event"
    },
    {
      "anonymous": false,
      "inputs": [
        {
          "indexed": true,
          "internalType": "address",
          "name": "previousOwner",
          "type": "address"
        },
        {
          "indexed": true,
          "internalType": "address",
          "name": "newOwner",
          "type": "address"
        }
      ],
      "name": "OwnershipTransferred",
      "type": "event"
    },
    {
      "inputs": [],
      "name": "owner",
      "outputs": [
        {
          "internalType": "address",
          "name": "",
          "type": "address"
        }
      ],
      "stateMutability": "view",
      "type": "function",
      "constant": true
    },
    {
      "inputs": [],
      "name": "renounceOwnership",
      "outputs": [],
      "stateMutability": "nonpayable",
      "type": "function"
    },
    {
      "inputs": [],
      "name": "stakeholderCount",
      "outputs": [
        {
          "internalType": "uint256",
          "name": "",
          "type": "uint256"
        }
      ],
      "stateMutability": "view",
      "type": "function",
      "constant": true
    },
    {
      "inputs": [
        {
          "internalType": "address",
          "name": "",
          "type": "address"
        }
      ],
      "name": "stakeholders",
      "outputs": [
        {
          "internalType": "address",
          "name": "addr",
          "type": "address"
        },
        {
          "internalType": "uint256",
          "name": "rebate",
          "type": "uint256"
        },
        {
          "internalType": "uint256",
          "name": "inviteeCount",
          "type": "uint256"
        }
      ],
      "stateMutability": "view",
      "type": "function",
      "constant": true
    },
    {
      "inputs": [],
      "name": "startTime",
      "outputs": [
        {
          "internalType": "uint256",
          "name": "",
          "type": "uint256"
        }
      ],
      "stateMutability": "view",
      "type": "function",
      "constant": true
    },
    {
      "inputs": [
        {
          "internalType": "address",
          "name": "newOwner",
          "type": "address"
        }
      ],
      "name": "transferOwnership",
      "outputs": [],
      "stateMutability": "nonpayable",
      "type": "function"
    },
    {
      "inputs": [
        {
          "internalType": "uint256",
          "name": "_startTime",
          "type": "uint256"
        }
      ],
      "name": "setStartTime",
      "outputs": [],
      "stateMutability": "nonpayable",
      "type": "function"
    },
    {
      "inputs": [],
      "name": "contractBalance",
      "outputs": [
        {
          "internalType": "uint256",
          "name": "",
          "type": "uint256"
        }
      ],
      "stateMutability": "view",
      "type": "function",
      "constant": true
    },
    {
      "inputs": [
        {
          "internalType": "address",
          "name": "_stakeholder",
          "type": "address"
        }
      ],
      "name": "stakesOf",
      "outputs": [
        {
          "components": [
            {
              "internalType": "uint256",
              "name": "amount",
              "type": "uint256"
            },
            {
              "internalType": "uint256",
              "name": "rewardRate",
              "type": "uint256"
            },
            {
              "internalType": "uint256",
              "name": "claimed",
              "type": "uint256"
            },
            {
              "internalType": "uint256",
              "name": "lastClaimDate",
              "type": "uint256"
            }
          ],
          "internalType": "struct ParticleStaking.Stake[]",
          "name": "",
          "type": "tuple[]"
        }
      ],
      "stateMutability": "view",
      "type": "function",
      "constant": true
    },
    {
      "inputs": [
        {
          "internalType": "address",
          "name": "_stakeholder",
          "type": "address"
        }
      ],
      "name": "isStakeholder",
      "outputs": [
        {
          "internalType": "bool",
          "name": "",
          "type": "bool"
        }
      ],
      "stateMutability": "view",
      "type": "function",
      "constant": true
    },
    {
      "inputs": [
        {
          "internalType": "address",
          "name": "_referrer",
          "type": "address"
        }
      ],
      "name": "deposit",
      "outputs": [],
      "stateMutability": "payable",
      "type": "function",
      "payable": true
    },
    {
      "inputs": [],
      "name": "claim",
      "outputs": [],
      "stateMutability": "payable",
      "type": "function",
      "payable": true
    }
  ],
  "bytecode": "0x608060405234801561001057600080fd5b5061001a33610035565b60018055600280546001600160a01b03191633179055610085565b600080546001600160a01b038381166001600160a01b0319831681178455604051919092169283917f8be0079c531659141344cd1fd0a4f28419497f9722a3daafe3b4186f6b6457e09190a35050565b610fb2806100946000396000f3fe6080604052600436106100a75760003560e01c80638da5cb5b116100645780638da5cb5b14610158578063c07cfca914610180578063d8319ef3146101eb578063ef037b9014610201578063f2fde38b14610231578063f340fa011461025157600080fd5b806333b69c4c146100ac5780633e0a322d146100e25780634e71d92d14610104578063715018a61461010c57806378e97925146101215780638b7afe2e14610145575b600080fd5b3480156100b857600080fd5b506100cc6100c7366004610cae565b610264565b6040516100d99190610cd7565b60405180910390f35b3480156100ee57600080fd5b506101026100fd366004610d3b565b61032f565b005b6101026103c0565b34801561011857600080fd5b506101026106d0565b34801561012d57600080fd5b5061013760035481565b6040519081526020016100d9565b34801561015157600080fd5b5047610137565b34801561016457600080fd5b506000546040516001600160a01b0390911681526020016100d9565b34801561018c57600080fd5b506101c661019b366004610cae565b6005602052600090815260409020805460018201546002909201546001600160a01b03909116919083565b604080516001600160a01b0390941684526020840192909252908201526060016100d9565b3480156101f757600080fd5b5061013760045481565b34801561020d57600080fd5b5061022161021c366004610cae565b610706565b60405190151581526020016100d9565b34801561023d57600080fd5b5061010261024c366004610cae565b610726565b61010261025f366004610cae565b6107c1565b606061026f33610706565b6102945760405162461bcd60e51b815260040161028b90610d54565b60405180910390fd5b6001600160a01b038216600090815260056020908152604080832060030180548251818502810185019093528083529193909284015b828210156103245783829060005260206000209060040201604051806080016040529081600082015481526020016001820154815260200160028201548152602001600382015481525050815260200190600101906102ca565b505050509050919050565b6000546001600160a01b031633146103595760405162461bcd60e51b815260040161028b90610da2565b600354156103bb5760405162461bcd60e51b815260206004820152602960248201527f5061727469636c655374616b696e673a206576656e742068617320616c726561604482015268191e481bdc195b995960ba1b606482015260840161028b565b600355565b6002600154036104125760405162461bcd60e51b815260206004820152601f60248201527f5265656e7472616e637947756172643a207265656e7472616e742063616c6c00604482015260640161028b565b600260015561042033610706565b61043c5760405162461bcd60e51b815260040161028b90610d54565b600354421161049f5760405162461bcd60e51b815260206004820152602960248201527f5061727469636c655374616b696e673a206576656e74206973206e6f74207374604482015268185c9d1959081e595d60ba1b606482015260840161028b565b60008060005b336000908152600560205260409020600301548110156105f857336000908152600560205260408120600301805461052e9190849081106104e8576104e8610dd7565b9060005260206000209060040201604051806080016040529081600082015481526020016001820154815260200160028201548152602001600382015481525050610b95565b9050600061053b82610be6565b90506105478183610e03565b33600090815260056020526040902060030180548590811061056b5761056b610dd7565b9060005260206000209060040201600201600082825461058b9190610e1a565b90915550503360009081526005602052604090206003018054429190859081106105b7576105b7610dd7565b60009182526020909120600360049092020101556105d58286610e1a565b94506105e18185610e1a565b9350505080806105f090610e32565b9150506104a5565b50336000908152600560205260408120600101805490829055908161061d8486610e03565b6106279190610e1a565b6002546040519192506001600160a01b03169084156108fc029085906000818181858888f19350505050158015610662573d6000803e3d6000fd5b50604051339082156108fc029083906000818181858888f19350505050158015610690573d6000803e3d6000fd5b5060405181815233907f47cee97cb7acd717b3c0aa1435d004cd5b3c8c57d70dbceb4e4458bbd60e39d49060200160405180910390a25050600180555050565b6000546001600160a01b031633146106fa5760405162461bcd60e51b815260040161028b90610da2565b6107046000610bf5565b565b6001600160a01b0390811660009081526005602052604090205416151590565b6000546001600160a01b031633146107505760405162461bcd60e51b815260040161028b90610da2565b6001600160a01b0381166107b55760405162461bcd60e51b815260206004820152602660248201527f4f776e61626c653a206e6577206f776e657220697320746865207a65726f206160448201526564647265737360d01b606482015260840161028b565b6107be81610bf5565b50565b6002600154036108135760405162461bcd60e51b815260206004820152601f60248201527f5265656e7472616e637947756172643a207265656e7472616e742063616c6c00604482015260640161028b565b60026001556003546108785760405162461bcd60e51b815260206004820152602860248201527f5061727469636c655374616b696e673a206576656e74206973206e6f74206f70604482015267195b9959081e595d60c21b606482015260840161028b565b336000908152600560205260409020600301546014116108f25760405162461bcd60e51b815260206004820152602f60248201527f5061727469636c655374616b696e673a206d6178696d756d207374616b65206360448201526e1bdd5b9d081a5cc81c995858da1959608a1b606482015260840161028b565b6108fb33610706565b6109345733600081815260056020526040812080546001600160a01b031916909217909155600480549161092e83610e32565b91905055505b600061093f34610be6565b9050600061094d8234610e03565b336000908152600560205260408120600301549192509061096d90610c45565b600354909150429081101561098157506003545b336000818152600560209081526040808320815160808101835288815280840188815292810185815260608201888152600393840180546001818101835591895296909720925160049096029092019485559251948401949094559051600283015591519101556001600160a01b0386161480610a045750610a0285610706565b155b15610a7e57610a1283610c89565b6002546001600160a01b031660009081526005602052604081206001018054909190610a3f908490610e1a565b9091555050600280546001600160a01b03166000908152600560205260408120909101805460019290610a73908490610e1a565b90915550610b1a9050565b610a8783610c89565b3360009081526005602052604081206001018054909190610aa9908490610e1a565b90915550610ab8905083610c89565b6001600160a01b03861660009081526005602052604081206001018054909190610ae3908490610e1a565b90915550506001600160a01b0385166000908152600560205260408120600201805460019290610b14908490610e1a565b90915550505b6002546040516001600160a01b039091169085156108fc029086906000818181858888f19350505050158015610b54573d6000803e3d6000fd5b5060405134815233907fe1fffcc4923d04b559f4d29a8bfc6cda04eb5b0d3c460751c2402c5c5cc9109c9060200160405180910390a2505060018055505050565b60006301e13380606483602001518460000151856060015142610bb89190610e03565b610bc29190610e4b565b610bcc9190610e4b565b610bd69190610e6a565b610be09190610e6a565b92915050565b60006064610bd6836003610e4b565b600080546001600160a01b038381166001600160a01b0319831681178455604051919092169283917f8be0079c531659141344cd1fd0a4f28419497f9722a3daafe3b4186f6b6457e09190a35050565b600080610c53836064610f70565b610c5e846069610f70565b610c6a90610b68610e4b565b610c749190610e6a565b9050610c828161111c610c98565b9392505050565b60006064610bd6836005610e4b565b6000818310610ca75781610c82565b5090919050565b600060208284031215610cc057600080fd5b81356001600160a01b0381168114610c8257600080fd5b602080825282518282018190526000919060409081850190868401855b82811015610d2e57815180518552868101518786015285810151868601526060908101519085015260809093019290850190600101610cf4565b5091979650505050505050565b600060208284031215610d4d57600080fd5b5035919050565b6020808252602e908201527f5061727469636c655374616b696e673a2063616c6c6572206973206e6f74207460408201526d34329039ba30b5b2b437b63232b960911b606082015260800190565b6020808252818101527f4f776e61626c653a2063616c6c6572206973206e6f7420746865206f776e6572604082015260600190565b634e487b7160e01b600052603260045260246000fd5b634e487b7160e01b600052601160045260246000fd5b600082821015610e1557610e15610ded565b500390565b60008219821115610e2d57610e2d610ded565b500190565b600060018201610e4457610e44610ded565b5060010190565b6000816000190483118215151615610e6557610e65610ded565b500290565b600082610e8757634e487b7160e01b600052601260045260246000fd5b500490565b600181815b80851115610ec7578160001904821115610ead57610ead610ded565b80851615610eba57918102915b93841c9390800290610e91565b509250929050565b600082610ede57506001610be0565b81610eeb57506000610be0565b8160018114610f015760028114610f0b57610f27565b6001915050610be0565b60ff841115610f1c57610f1c610ded565b50506001821b610be0565b5060208310610133831016604e8410600b8410161715610f4a575081810a610be0565b610f548383610e8c565b8060001904821115610f6857610f68610ded565b029392505050565b6000610c828383610ecf56fea26469706673582212207976e5d61c4b867726c61b9db9518fdcad0d5aad5f5a6f044086fbe369ac490264736f6c634300080d0033",
  "immutableReferences": {},
  "source": "// SPDX-License-Identifier: MIT\npragma solidity ^0.8.0;\n\nimport \"@openzeppelin/contracts/access/Ownable.sol\";\nimport \"@openzeppelin/contracts/security/ReentrancyGuard.sol\";\n\ncontract ParticleStaking is Ownable, ReentrancyGuard {\n    address private _owner;\n    uint256 constant MIN_REWARD_RATE = 365 * 8;\n    uint256 constant MAX_REWARD_RATE = 365 * 12;\n    uint256 public startTime;\n    uint256 public stakeholderCount;\n    mapping(address => Stakeholder) public stakeholders;\n\n    struct Stakeholder {\n        address addr;\n        uint256 rebate;\n        uint256 inviteeCount;\n        Stake[] stakes;\n    }\n\n    struct Stake {\n        uint256 amount;\n        uint256 rewardRate;\n        uint256 claimed;\n        uint256 lastClaimDate;\n    }\n\n    constructor() {\n        _owner = msg.sender;\n    }\n\n    modifier onlyStakeholder() {\n        require(isStakeholder(msg.sender), \"ParticleStaking: caller is not the stakeholder\");\n        _;\n    }\n\n    modifier onlyOpened() {\n        require(startTime > 0, \"ParticleStaking: event is not opened yet\");\n        _;\n    }\n\n    modifier onlyStarted() {\n        require(block.timestamp > startTime, \"ParticleStaking: event is not started yet\");\n        _;\n    }\n\n    function setStartTime(uint256 _startTime)\n        external\n        onlyOwner\n    {\n        require(startTime == 0, \"ParticleStaking: event has already opened\");\n        startTime = _startTime;\n    }\n\n    function contractBalance()\n        external\n        view\n        returns (uint256)\n    {\n        return address(this).balance;\n    }\n\n    function stakesOf(address _stakeholder)\n        external\n        view\n        onlyStakeholder\n        returns (Stake[] memory)\n    {\n        return stakeholders[_stakeholder].stakes;\n    }\n\n    function isStakeholder(address _stakeholder)\n        public\n        view\n        returns (bool)\n    {\n        return stakeholders[_stakeholder].addr != address(0);\n    }\n\n    function deposit(address _referrer)\n        public\n        payable\n        nonReentrant\n        onlyOpened\n    {\n        require(stakeholders[msg.sender].stakes.length < 20, \"ParticleStaking: maximum stake count is reached\");\n        if (!isStakeholder(msg.sender)) {\n            stakeholders[msg.sender].addr = msg.sender;\n            stakeholderCount++;\n        }\n        uint256 _fee = calculateFee(msg.value);\n        uint256 _amount = msg.value - _fee;\n        uint256 _rewardRate = calculateRewardRate(stakeholders[msg.sender].stakes.length);\n        uint256 _lastClaimDate = block.timestamp;\n        if (block.timestamp < startTime) {\n            _lastClaimDate = startTime;\n        }\n        stakeholders[msg.sender].stakes.push(Stake({\n            amount: _amount,\n            rewardRate: _rewardRate,\n            claimed: 0,\n            lastClaimDate: _lastClaimDate\n        }));\n        if (_referrer == msg.sender || !isStakeholder(_referrer)) {\n            stakeholders[_owner].rebate += calculateRebate(_amount);\n            stakeholders[_owner].inviteeCount += 1;\n        } else {\n            stakeholders[msg.sender].rebate += calculateRebate(_amount);\n            stakeholders[_referrer].rebate += calculateRebate(_amount);\n            stakeholders[_referrer].inviteeCount += 1;\n        }\n        payable(_owner).transfer(_fee);\n        emit Deposit(msg.sender, msg.value);\n    }\n\n    function claim()\n        public\n        payable\n        nonReentrant\n        onlyStakeholder\n        onlyStarted\n    {\n        uint256 _totalRewards;\n        uint256 _totalFees;\n        for (uint256 i = 0; i < stakeholders[msg.sender].stakes.length; i++) {\n            uint256 _reward = calculateReward(stakeholders[msg.sender].stakes[i]);\n            uint256 _fee = calculateFee(_reward);\n            stakeholders[msg.sender].stakes[i].claimed += _reward - _fee;\n            stakeholders[msg.sender].stakes[i].lastClaimDate = block.timestamp;\n            _totalRewards += _reward;\n            _totalFees += _fee;\n        }\n        uint256 _rebate = stakeholders[msg.sender].rebate;\n        stakeholders[msg.sender].rebate = 0;\n        uint256 _amount = _totalRewards - _totalFees + _rebate;\n        payable(_owner).transfer(_totalFees);\n        payable(msg.sender).transfer(_amount);\n        emit Claim(msg.sender, _amount);\n    }\n\n    function calculateReward(Stake memory _stake)\n        private\n        view\n        returns (uint256)\n    {\n        return (block.timestamp - _stake.lastClaimDate) * _stake.amount * _stake.rewardRate / 100 / 365 days;\n    }\n\n    function calculateRewardRate(uint256 _level)\n        private\n        pure\n        returns (uint256)\n    {\n        uint256 _rewardRate = MIN_REWARD_RATE * (105 ** _level) / (100 ** _level);\n        return min(_rewardRate, MAX_REWARD_RATE);\n    }\n\n    function calculateRebate(uint256 _amount)\n        private\n        pure\n        returns (uint256)\n    {\n        return _amount * 5 / 100;\n    }\n\n    function calculateFee(uint256 _amount)\n        private\n        pure\n        returns (uint256)\n    {\n        return _amount * 3 / 100;\n    }\n\n    function min(uint256 _a, uint256 _b)\n        private\n        pure\n        returns (uint256)\n    {\n        return _a < _b ? _a : _b;\n    }\n\n    event Deposit(address indexed _stakeholder, uint256 _amount);\n    event Claim(address indexed _stakeholder, uint256 _amount);\n}\n",
  "sourcePath": "/Users/memochou/Projects/particle-staking/contracts/ParticleStaking.sol",
  "compiler": {
    "name": "solc",
    "version": "0.8.13+commit.abaa5c0e.Emscripten.clang"
  },
  "schemaVersion": "3.4.7",
  "updatedAt": "2022-06-17T17:57:17.789Z",
  "networkType": "ethereum",
  "devdoc": {
    "kind": "dev",
    "methods": {
      "owner()": {
        "details": "Returns the address of the current owner."
      },
      "renounceOwnership()": {
        "details": "Leaves the contract without owner. It will not be possible to call `onlyOwner` functions anymore. Can only be called by the current owner. NOTE: Renouncing ownership will leave the contract without an owner, thereby removing any functionality that is only available to the owner."
      },
      "transferOwnership(address)": {
        "details": "Transfers ownership of the contract to a new account (`newOwner`). Can only be called by the current owner."
      }
    },
    "version": 1
  },
  "userdoc": {
    "kind": "user",
    "methods": {},
    "version": 1
  }
}