{
  "contractName": "ParticleStaking",
  "abi": [
    {
      "inputs": [],
      "stateMutability": "nonpayable",
      "type": "constructor"
    },
    {
      "anonymous": false,
      "inputs": [
        {
          "indexed": true,
          "internalType": "address",
          "name": "_stakeholder",
          "type": "address"
        },
        {
          "indexed": false,
          "internalType": "uint256",
          "name": "_amount",
          "type": "uint256"
        }
      ],
      "name": "Claim",
      "type": "event"
    },
    {
      "anonymous": false,
      "inputs": [
        {
          "indexed": true,
          "internalType": "address",
          "name": "_stakeholder",
          "type": "address"
        },
        {
          "indexed": false,
          "internalType": "uint256",
          "name": "_amount",
          "type": "uint256"
        }
      ],
      "name": "Deposit",
      "type": "event"
    },
    {
      "anonymous": false,
      "inputs": [
        {
          "indexed": true,
          "internalType": "address",
          "name": "previousOwner",
          "type": "address"
        },
        {
          "indexed": true,
          "internalType": "address",
          "name": "newOwner",
          "type": "address"
        }
      ],
      "name": "OwnershipTransferred",
      "type": "event"
    },
    {
      "inputs": [],
      "name": "owner",
      "outputs": [
        {
          "internalType": "address",
          "name": "",
          "type": "address"
        }
      ],
      "stateMutability": "view",
      "type": "function",
      "constant": true
    },
    {
      "inputs": [],
      "name": "renounceOwnership",
      "outputs": [],
      "stateMutability": "nonpayable",
      "type": "function"
    },
    {
      "inputs": [],
      "name": "stakeholderCount",
      "outputs": [
        {
          "internalType": "uint256",
          "name": "",
          "type": "uint256"
        }
      ],
      "stateMutability": "view",
      "type": "function",
      "constant": true
    },
    {
      "inputs": [
        {
          "internalType": "address",
          "name": "",
          "type": "address"
        }
      ],
      "name": "stakeholders",
      "outputs": [
        {
          "internalType": "address",
          "name": "addr",
          "type": "address"
        },
        {
          "internalType": "uint256",
          "name": "level",
          "type": "uint256"
        },
        {
          "internalType": "uint256",
          "name": "rebate",
          "type": "uint256"
        },
        {
          "internalType": "uint256",
          "name": "inviteeCount",
          "type": "uint256"
        }
      ],
      "stateMutability": "view",
      "type": "function",
      "constant": true
    },
    {
      "inputs": [],
      "name": "startTime",
      "outputs": [
        {
          "internalType": "uint256",
          "name": "",
          "type": "uint256"
        }
      ],
      "stateMutability": "view",
      "type": "function",
      "constant": true
    },
    {
      "inputs": [
        {
          "internalType": "address",
          "name": "newOwner",
          "type": "address"
        }
      ],
      "name": "transferOwnership",
      "outputs": [],
      "stateMutability": "nonpayable",
      "type": "function"
    },
    {
      "inputs": [
        {
          "internalType": "uint256",
          "name": "_startTime",
          "type": "uint256"
        }
      ],
      "name": "setStartTime",
      "outputs": [],
      "stateMutability": "nonpayable",
      "type": "function"
    },
    {
      "inputs": [],
      "name": "contractBalance",
      "outputs": [
        {
          "internalType": "uint256",
          "name": "",
          "type": "uint256"
        }
      ],
      "stateMutability": "view",
      "type": "function",
      "constant": true
    },
    {
      "inputs": [
        {
          "internalType": "address",
          "name": "_stakeholder",
          "type": "address"
        }
      ],
      "name": "stakesOf",
      "outputs": [
        {
          "components": [
            {
              "internalType": "uint256",
              "name": "amount",
              "type": "uint256"
            },
            {
              "internalType": "uint256",
              "name": "rewardRate",
              "type": "uint256"
            },
            {
              "internalType": "uint256",
              "name": "claimed",
              "type": "uint256"
            },
            {
              "internalType": "uint256",
              "name": "lastClaimDate",
              "type": "uint256"
            }
          ],
          "internalType": "struct ParticleStaking.Stake[]",
          "name": "",
          "type": "tuple[]"
        }
      ],
      "stateMutability": "view",
      "type": "function",
      "constant": true
    },
    {
      "inputs": [
        {
          "internalType": "address",
          "name": "_stakeholder",
          "type": "address"
        }
      ],
      "name": "rewardRateOf",
      "outputs": [
        {
          "internalType": "uint256",
          "name": "",
          "type": "uint256"
        }
      ],
      "stateMutability": "view",
      "type": "function",
      "constant": true
    },
    {
      "inputs": [
        {
          "internalType": "address",
          "name": "_stakeholder",
          "type": "address"
        }
      ],
      "name": "isStakeholder",
      "outputs": [
        {
          "internalType": "bool",
          "name": "",
          "type": "bool"
        }
      ],
      "stateMutability": "view",
      "type": "function",
      "constant": true
    },
    {
      "inputs": [
        {
          "internalType": "address",
          "name": "_referrer",
          "type": "address"
        }
      ],
      "name": "deposit",
      "outputs": [],
      "stateMutability": "payable",
      "type": "function",
      "payable": true
    },
    {
      "inputs": [],
      "name": "claim",
      "outputs": [],
      "stateMutability": "payable",
      "type": "function",
      "payable": true
    }
  ],
  "bytecode": "0x608060405234801561001057600080fd5b5061001a33610035565b60018055600280546001600160a01b03191633179055610085565b600080546001600160a01b038381166001600160a01b0319831681178455604051919092169283917f8be0079c531659141344cd1fd0a4f28419497f9722a3daafe3b4186f6b6457e09190a35050565b611076806100946000396000f3fe6080604052600436106100c25760003560e01c80638b7afe2e1161007f578063d8319ef311610059578063d8319ef314610231578063ef037b9014610247578063f2fde38b14610277578063f340fa011461029757600080fd5b80638b7afe2e146101805780638da5cb5b14610193578063c07cfca9146101bb57600080fd5b806333b69c4c146100c75780633e0a322d146100fd5780634e71d92d1461011f5780635b09c87614610127578063715018a61461015557806378e979251461016a575b600080fd5b3480156100d357600080fd5b506100e76100e2366004610d72565b6102aa565b6040516100f49190610d9b565b60405180910390f35b34801561010957600080fd5b5061011d610118366004610dff565b610375565b005b61011d610406565b34801561013357600080fd5b50610147610142366004610d72565b610716565b6040519081526020016100f4565b34801561016157600080fd5b5061011d610768565b34801561017657600080fd5b5061014760035481565b34801561018c57600080fd5b5047610147565b34801561019f57600080fd5b506000546040516001600160a01b0390911681526020016100f4565b3480156101c757600080fd5b506102076101d6366004610d72565b60056020526000908152604090208054600182015460028301546003909301546001600160a01b0390921692909184565b604080516001600160a01b03909516855260208501939093529183015260608201526080016100f4565b34801561023d57600080fd5b5061014760045481565b34801561025357600080fd5b50610267610262366004610d72565b61079e565b60405190151581526020016100f4565b34801561028357600080fd5b5061011d610292366004610d72565b6107be565b61011d6102a5366004610d72565b610859565b60606102b53361079e565b6102da5760405162461bcd60e51b81526004016102d190610e18565b60405180910390fd5b6001600160a01b038216600090815260056020908152604080832060040180548251818502810185019093528083529193909284015b8282101561036a578382906000526020600020906004020160405180608001604052908160008201548152602001600182015481526020016002820154815260200160038201548152505081526020019060010190610310565b505050509050919050565b6000546001600160a01b0316331461039f5760405162461bcd60e51b81526004016102d190610e66565b600354156104015760405162461bcd60e51b815260206004820152602960248201527f5061727469636c655374616b696e673a206576656e742068617320616c726561604482015268191e481bdc195b995960ba1b60648201526084016102d1565b600355565b6002600154036104585760405162461bcd60e51b815260206004820152601f60248201527f5265656e7472616e637947756172643a207265656e7472616e742063616c6c0060448201526064016102d1565b60026001556104663361079e565b6104825760405162461bcd60e51b81526004016102d190610e18565b60035442116104e55760405162461bcd60e51b815260206004820152602960248201527f5061727469636c655374616b696e673a206576656e74206973206e6f74207374604482015268185c9d1959081e595d60ba1b60648201526084016102d1565b60008060005b3360009081526005602052604090206004015481101561063e57336000908152600560205260408120600401805461057491908490811061052e5761052e610e9b565b9060005260206000209060040201604051806080016040529081600082015481526020016001820154815260200160028201548152602001600382015481525050610c5f565b9050600061058182610caa565b905061058d8183610ec7565b3360009081526005602052604090206004018054859081106105b1576105b1610e9b565b906000526020600020906004020160020160008282546105d19190610ede565b90915550503360009081526005602052604090206004018054429190859081106105fd576105fd610e9b565b600091825260209091206003600490920201015561061b8286610ede565b94506106278185610ede565b93505050808061063690610ef6565b9150506104eb565b5033600090815260056020526040812060020180549082905590816106638486610ec7565b61066d9190610ede565b6002546040519192506001600160a01b03169084156108fc029085906000818181858888f193505050501580156106a8573d6000803e3d6000fd5b50604051339082156108fc029083906000818181858888f193505050501580156106d6573d6000803e3d6000fd5b5060405181815233907f47cee97cb7acd717b3c0aa1435d004cd5b3c8c57d70dbceb4e4458bbd60e39d49060200160405180910390a25050600180555050565b60006107213361079e565b61073d5760405162461bcd60e51b81526004016102d190610e18565b6001600160a01b03821660009081526005602052604090206001015461076290610cb9565b92915050565b6000546001600160a01b031633146107925760405162461bcd60e51b81526004016102d190610e66565b61079c6000610cfd565b565b6001600160a01b0390811660009081526005602052604090205416151590565b6000546001600160a01b031633146107e85760405162461bcd60e51b81526004016102d190610e66565b6001600160a01b03811661084d5760405162461bcd60e51b815260206004820152602660248201527f4f776e61626c653a206e6577206f776e657220697320746865207a65726f206160448201526564647265737360d01b60648201526084016102d1565b61085681610cfd565b50565b6002600154036108ab5760405162461bcd60e51b815260206004820152601f60248201527f5265656e7472616e637947756172643a207265656e7472616e742063616c6c0060448201526064016102d1565b60026001556003546109105760405162461bcd60e51b815260206004820152602860248201527f5061727469636c655374616b696e673a206576656e74206973206e6f74206f70604482015267195b9959081e595d60c21b60648201526084016102d1565b336000908152600560205260409020600401546014101561098b5760405162461bcd60e51b815260206004820152602f60248201527f5061727469636c655374616b696e673a206d6178696d756d207374616b65206360448201526e1bdd5b9d081a5cc81c995858da1959608a1b60648201526084016102d1565b6109943361079e565b6109cd5733600081815260056020526040812080546001600160a01b03191690921790915560048054916109c783610ef6565b91905055505b60006109d834610caa565b905060006109e68234610ec7565b3360009081526005602052604081206001015491925090610a0690610cb9565b6003549091504290811015610a1a57506003545b3360008181526005602081815260408084208151608081018352898152808401898152928101868152606082018981526004808501805460018181018355918b52888b20955192029094019081559451858401559051600285015551600390930192909255948452919052909101805491610a9483610ef6565b90915550506002546001600160a01b0386811691161480610abd57506001600160a01b03851633145b80610ace5750610acc8561079e565b155b15610b4857610adc83610d4d565b600280546001600160a01b031660009081526005602052604081209091018054909190610b0a908490610ede565b90915550506002546001600160a01b03166000908152600560205260408120600301805460019290610b3d908490610ede565b90915550610be49050565b610b5183610d4d565b3360009081526005602052604081206002018054909190610b73908490610ede565b90915550610b82905083610d4d565b6001600160a01b03861660009081526005602052604081206002018054909190610bad908490610ede565b90915550506001600160a01b0385166000908152600560205260408120600301805460019290610bde908490610ede565b90915550505b6002546040516001600160a01b039091169085156108fc029086906000818181858888f19350505050158015610c1e573d6000803e3d6000fd5b5060405134815233907fe1fffcc4923d04b559f4d29a8bfc6cda04eb5b0d3c460751c2402c5c5cc9109c9060200160405180910390a2505060018055505050565b60006301e13380606483602001518460000151856060015142610c829190610ec7565b610c8c9190610f0f565b610c969190610f0f565b610ca09190610f2e565b6107629190610f2e565b60006064610ca0836003610f0f565b600080610cc7836064611034565b610cd2846069611034565b610cde90610b68610f0f565b610ce89190610f2e565b9050610cf68161111c610d5c565b9392505050565b600080546001600160a01b038381166001600160a01b0319831681178455604051919092169283917f8be0079c531659141344cd1fd0a4f28419497f9722a3daafe3b4186f6b6457e09190a35050565b60006064610ca0836005610f0f565b6000818310610d6b5781610cf6565b5090919050565b600060208284031215610d8457600080fd5b81356001600160a01b0381168114610cf657600080fd5b602080825282518282018190526000919060409081850190868401855b82811015610df257815180518552868101518786015285810151868601526060908101519085015260809093019290850190600101610db8565b5091979650505050505050565b600060208284031215610e1157600080fd5b5035919050565b6020808252602e908201527f5061727469636c655374616b696e673a2063616c6c6572206973206e6f74207460408201526d34329039ba30b5b2b437b63232b960911b606082015260800190565b6020808252818101527f4f776e61626c653a2063616c6c6572206973206e6f7420746865206f776e6572604082015260600190565b634e487b7160e01b600052603260045260246000fd5b634e487b7160e01b600052601160045260246000fd5b600082821015610ed957610ed9610eb1565b500390565b60008219821115610ef157610ef1610eb1565b500190565b600060018201610f0857610f08610eb1565b5060010190565b6000816000190483118215151615610f2957610f29610eb1565b500290565b600082610f4b57634e487b7160e01b600052601260045260246000fd5b500490565b600181815b80851115610f8b578160001904821115610f7157610f71610eb1565b80851615610f7e57918102915b93841c9390800290610f55565b509250929050565b600082610fa257506001610762565b81610faf57506000610762565b8160018114610fc55760028114610fcf57610feb565b6001915050610762565b60ff841115610fe057610fe0610eb1565b50506001821b610762565b5060208310610133831016604e8410600b841016171561100e575081810a610762565b6110188383610f50565b806000190482111561102c5761102c610eb1565b029392505050565b6000610cf68383610f9356fea26469706673582212206917840337b5ac991a7beba60da3cf1de4a49fc68c1174efef6f0ae160b3eedd64736f6c634300080d0033",
  "immutableReferences": {},
  "source": "// SPDX-License-Identifier: MIT\npragma solidity ^0.8.0;\n\nimport \"@openzeppelin/contracts/access/Ownable.sol\";\nimport \"@openzeppelin/contracts/security/ReentrancyGuard.sol\";\n\ncontract ParticleStaking is Ownable, ReentrancyGuard {\n    address private _owner;\n    uint256 constant MIN_REWARD_RATE = 365 * 8;\n    uint256 constant MAX_REWARD_RATE = 365 * 12;\n    uint256 public startTime;\n    uint256 public stakeholderCount;\n    mapping(address => Stakeholder) public stakeholders;\n\n    struct Stakeholder {\n        address addr;\n        uint256 level;\n        uint256 rebate;\n        uint256 inviteeCount;\n        Stake[] stakes;\n    }\n\n    struct Stake {\n        uint256 amount;\n        uint256 rewardRate;\n        uint256 claimed;\n        uint256 lastClaimDate;\n    }\n\n    constructor() {\n        _owner = msg.sender;\n    }\n\n    modifier onlyStakeholder() {\n        require(isStakeholder(msg.sender), \"ParticleStaking: caller is not the stakeholder\");\n        _;\n    }\n\n    modifier onlyOpened() {\n        require(startTime > 0, \"ParticleStaking: event is not opened yet\");\n        _;\n    }\n\n    modifier onlyStarted() {\n        require(block.timestamp > startTime, \"ParticleStaking: event is not started yet\");\n        _;\n    }\n\n    function setStartTime(uint256 _startTime)\n        external\n        onlyOwner\n    {\n        require(startTime == 0, \"ParticleStaking: event has already opened\");\n        startTime = _startTime;\n    }\n\n    function contractBalance()\n        external\n        view\n        returns (uint256)\n    {\n        return address(this).balance;\n    }\n\n    function stakesOf(address _stakeholder)\n        external\n        view\n        onlyStakeholder\n        returns (Stake[] memory)\n    {\n        return stakeholders[_stakeholder].stakes;\n    }\n\n    function rewardRateOf(address _stakeholder)\n        external\n        view\n        onlyStakeholder\n        returns (uint256)\n    {\n        return calculateRewardRate(stakeholders[_stakeholder].level);\n    }\n\n    function isStakeholder(address _stakeholder)\n        public\n        view\n        returns (bool)\n    {\n        return stakeholders[_stakeholder].addr != address(0);\n    }\n\n    function deposit(address _referrer)\n        public\n        payable\n        nonReentrant\n        onlyOpened\n    {\n        require(stakeholders[msg.sender].stakes.length <= 20, \"ParticleStaking: maximum stake count is reached\");\n        if (!isStakeholder(msg.sender)) {\n            stakeholders[msg.sender].addr = msg.sender;\n            stakeholderCount++;\n        }\n        uint256 _fee = calculateFee(msg.value);\n        uint256 _amount = msg.value - _fee;\n        uint256 _rewardRate = calculateRewardRate(stakeholders[msg.sender].level);\n        uint256 _lastClaimDate = block.timestamp;\n        if (block.timestamp < startTime) {\n            _lastClaimDate = startTime;\n        }\n        stakeholders[msg.sender].stakes.push(Stake({\n            amount: _amount,\n            rewardRate: _rewardRate,\n            claimed: 0,\n            lastClaimDate: _lastClaimDate\n        }));\n        stakeholders[msg.sender].level++;\n        if (_referrer == _owner || _referrer == msg.sender || !isStakeholder(_referrer)) {\n            stakeholders[_owner].rebate += calculateRebate(_amount);\n            stakeholders[_owner].inviteeCount += 1;\n        } else {\n            stakeholders[msg.sender].rebate += calculateRebate(_amount);\n            stakeholders[_referrer].rebate += calculateRebate(_amount);\n            stakeholders[_referrer].inviteeCount += 1;\n        }\n        payable(_owner).transfer(_fee);\n        emit Deposit(msg.sender, msg.value);\n    }\n\n    function claim()\n        public\n        payable\n        nonReentrant\n        onlyStakeholder\n        onlyStarted\n    {\n        uint256 _totalRewards;\n        uint256 _totalFees;\n        for (uint256 i = 0; i < stakeholders[msg.sender].stakes.length; i++) {\n            uint256 _reward = calculateReward(stakeholders[msg.sender].stakes[i]);\n            uint256 _fee = calculateFee(_reward);\n            stakeholders[msg.sender].stakes[i].claimed += _reward - _fee;\n            stakeholders[msg.sender].stakes[i].lastClaimDate = block.timestamp;\n            _totalRewards += _reward;\n            _totalFees += _fee;\n        }\n        uint256 _rebate = stakeholders[msg.sender].rebate;\n        stakeholders[msg.sender].rebate = 0;\n        uint256 _amount = _totalRewards - _totalFees + _rebate;\n        payable(_owner).transfer(_totalFees);\n        payable(msg.sender).transfer(_amount);\n        emit Claim(msg.sender, _amount);\n    }\n\n    function calculateReward(Stake memory _stake)\n        private\n        view\n        returns (uint256)\n    {\n        return (block.timestamp - _stake.lastClaimDate) * _stake.amount * _stake.rewardRate / 100 / 365 days;\n    }\n\n    function calculateRewardRate(uint256 _level)\n        private\n        pure\n        returns (uint256)\n    {\n        uint256 _rewardRate = MIN_REWARD_RATE * (105 ** _level) / (100 ** _level);\n        return min(_rewardRate, MAX_REWARD_RATE);\n    }\n\n    function calculateRebate(uint256 _amount)\n        private\n        pure\n        returns (uint256)\n    {\n        return _amount * 5 / 100;\n    }\n\n    function calculateFee(uint256 _amount)\n        private\n        pure\n        returns (uint256)\n    {\n        return _amount * 3 / 100;\n    }\n\n    function min(uint256 _a, uint256 _b)\n        private\n        pure\n        returns (uint256)\n    {\n        return _a < _b ? _a : _b;\n    }\n\n    event Deposit(address indexed _stakeholder, uint256 _amount);\n    event Claim(address indexed _stakeholder, uint256 _amount);\n}\n",
  "sourcePath": "/Users/memochou/Projects/particle-staking/contracts/ParticleStaking.sol",
  "compiler": {
    "name": "solc",
    "version": "0.8.13+commit.abaa5c0e.Emscripten.clang"
  },
  "schemaVersion": "3.4.7",
  "updatedAt": "2022-06-17T09:27:55.503Z",
  "networkType": "ethereum",
  "devdoc": {
    "kind": "dev",
    "methods": {
      "owner()": {
        "details": "Returns the address of the current owner."
      },
      "renounceOwnership()": {
        "details": "Leaves the contract without owner. It will not be possible to call `onlyOwner` functions anymore. Can only be called by the current owner. NOTE: Renouncing ownership will leave the contract without an owner, thereby removing any functionality that is only available to the owner."
      },
      "transferOwnership(address)": {
        "details": "Transfers ownership of the contract to a new account (`newOwner`). Can only be called by the current owner."
      }
    },
    "version": 1
  },
  "userdoc": {
    "kind": "user",
    "methods": {},
    "version": 1
  }
}