{
  "contractName": "ParticleStaking",
  "abi": [
    {
      "inputs": [],
      "stateMutability": "nonpayable",
      "type": "constructor"
    },
    {
      "anonymous": false,
      "inputs": [
        {
          "indexed": true,
          "internalType": "address",
          "name": "_stakeholder",
          "type": "address"
        },
        {
          "indexed": false,
          "internalType": "uint256",
          "name": "_amount",
          "type": "uint256"
        }
      ],
      "name": "Claim",
      "type": "event"
    },
    {
      "anonymous": false,
      "inputs": [
        {
          "indexed": true,
          "internalType": "address",
          "name": "_stakeholder",
          "type": "address"
        },
        {
          "indexed": false,
          "internalType": "uint256",
          "name": "_amount",
          "type": "uint256"
        }
      ],
      "name": "Deposit",
      "type": "event"
    },
    {
      "anonymous": false,
      "inputs": [
        {
          "indexed": true,
          "internalType": "address",
          "name": "previousOwner",
          "type": "address"
        },
        {
          "indexed": true,
          "internalType": "address",
          "name": "newOwner",
          "type": "address"
        }
      ],
      "name": "OwnershipTransferred",
      "type": "event"
    },
    {
      "inputs": [],
      "name": "owner",
      "outputs": [
        {
          "internalType": "address",
          "name": "",
          "type": "address"
        }
      ],
      "stateMutability": "view",
      "type": "function",
      "constant": true
    },
    {
      "inputs": [],
      "name": "renounceOwnership",
      "outputs": [],
      "stateMutability": "nonpayable",
      "type": "function"
    },
    {
      "inputs": [],
      "name": "stakeholderCount",
      "outputs": [
        {
          "internalType": "uint256",
          "name": "",
          "type": "uint256"
        }
      ],
      "stateMutability": "view",
      "type": "function",
      "constant": true
    },
    {
      "inputs": [
        {
          "internalType": "address",
          "name": "",
          "type": "address"
        }
      ],
      "name": "stakeholders",
      "outputs": [
        {
          "internalType": "address",
          "name": "addr",
          "type": "address"
        },
        {
          "internalType": "uint256",
          "name": "inviteeCount",
          "type": "uint256"
        },
        {
          "components": [
            {
              "internalType": "uint256",
              "name": "amount",
              "type": "uint256"
            },
            {
              "internalType": "uint256",
              "name": "claimed",
              "type": "uint256"
            }
          ],
          "internalType": "struct ParticleStaking.Rebate",
          "name": "rebate",
          "type": "tuple"
        }
      ],
      "stateMutability": "view",
      "type": "function",
      "constant": true
    },
    {
      "inputs": [],
      "name": "startTime",
      "outputs": [
        {
          "internalType": "uint256",
          "name": "",
          "type": "uint256"
        }
      ],
      "stateMutability": "view",
      "type": "function",
      "constant": true
    },
    {
      "inputs": [
        {
          "internalType": "address",
          "name": "newOwner",
          "type": "address"
        }
      ],
      "name": "transferOwnership",
      "outputs": [],
      "stateMutability": "nonpayable",
      "type": "function"
    },
    {
      "inputs": [
        {
          "internalType": "uint256",
          "name": "_startTime",
          "type": "uint256"
        }
      ],
      "name": "setStartTime",
      "outputs": [],
      "stateMutability": "nonpayable",
      "type": "function"
    },
    {
      "inputs": [],
      "name": "contractBalance",
      "outputs": [
        {
          "internalType": "uint256",
          "name": "",
          "type": "uint256"
        }
      ],
      "stateMutability": "view",
      "type": "function",
      "constant": true
    },
    {
      "inputs": [
        {
          "internalType": "address",
          "name": "_stakeholder",
          "type": "address"
        }
      ],
      "name": "stakesOf",
      "outputs": [
        {
          "components": [
            {
              "internalType": "uint256",
              "name": "amount",
              "type": "uint256"
            },
            {
              "internalType": "uint256",
              "name": "rewardRate",
              "type": "uint256"
            },
            {
              "internalType": "uint256",
              "name": "claimed",
              "type": "uint256"
            },
            {
              "internalType": "uint256",
              "name": "createdAt",
              "type": "uint256"
            }
          ],
          "internalType": "struct ParticleStaking.Stake[]",
          "name": "",
          "type": "tuple[]"
        }
      ],
      "stateMutability": "view",
      "type": "function",
      "constant": true
    },
    {
      "inputs": [
        {
          "internalType": "address",
          "name": "_stakeholder",
          "type": "address"
        }
      ],
      "name": "isStakeholder",
      "outputs": [
        {
          "internalType": "bool",
          "name": "",
          "type": "bool"
        }
      ],
      "stateMutability": "view",
      "type": "function",
      "constant": true
    },
    {
      "inputs": [
        {
          "internalType": "address",
          "name": "_referrer",
          "type": "address"
        }
      ],
      "name": "deposit",
      "outputs": [],
      "stateMutability": "payable",
      "type": "function",
      "payable": true
    },
    {
      "inputs": [],
      "name": "claim",
      "outputs": [],
      "stateMutability": "payable",
      "type": "function",
      "payable": true
    }
  ],
  "bytecode": "0x608060405234801561001057600080fd5b5061001a33610035565b60018055600280546001600160a01b03191633179055610085565b600080546001600160a01b038381166001600160a01b0319831681178455604051919092169283917f8be0079c531659141344cd1fd0a4f28419497f9722a3daafe3b4186f6b6457e09190a35050565b610fd7806100946000396000f3fe6080604052600436106100a75760003560e01c80638da5cb5b116100645780638da5cb5b14610158578063c07cfca914610180578063d8319ef31461020e578063ef037b9014610224578063f2fde38b14610254578063f340fa011461027457600080fd5b806333b69c4c146100ac5780633e0a322d146100e25780634e71d92d14610104578063715018a61461010c57806378e97925146101215780638b7afe2e14610145575b600080fd5b3480156100b857600080fd5b506100cc6100c7366004610cd3565b610287565b6040516100d99190610cfc565b60405180910390f35b3480156100ee57600080fd5b506101026100fd366004610d60565b610352565b005b6101026103e3565b34801561011857600080fd5b506101026106d7565b34801561012d57600080fd5b5061013760035481565b6040519081526020016100d9565b34801561015157600080fd5b5047610137565b34801561016457600080fd5b506000546040516001600160a01b0390911681526020016100d9565b34801561018c57600080fd5b506101df61019b366004610cd3565b60056020908152600091825260409182902080546001820154845180860190955260028301548552600390920154928401929092526001600160a01b039091169183565b604080516001600160a01b039094168452602080850193909352815190840152015160608201526080016100d9565b34801561021a57600080fd5b5061013760045481565b34801561023057600080fd5b5061024461023f366004610cd3565b61070d565b60405190151581526020016100d9565b34801561026057600080fd5b5061010261026f366004610cd3565b61072d565b610102610282366004610cd3565b6107c8565b60606102923361070d565b6102b75760405162461bcd60e51b81526004016102ae90610d79565b60405180910390fd5b6001600160a01b038216600090815260056020908152604080832060040180548251818502810185019093528083529193909284015b828210156103475783829060005260206000209060040201604051806080016040529081600082015481526020016001820154815260200160028201548152602001600382015481525050815260200190600101906102ed565b505050509050919050565b6000546001600160a01b0316331461037c5760405162461bcd60e51b81526004016102ae90610dc7565b600354156103de5760405162461bcd60e51b815260206004820152602960248201527f5061727469636c655374616b696e673a206576656e742068617320616c726561604482015268191e481bdc195b995960ba1b60648201526084016102ae565b600355565b6002600154036104355760405162461bcd60e51b815260206004820152601f60248201527f5265656e7472616e637947756172643a207265656e7472616e742063616c6c0060448201526064016102ae565b60026001556104433361070d565b61045f5760405162461bcd60e51b81526004016102ae90610d79565b60035442116104c25760405162461bcd60e51b815260206004820152602960248201527f5061727469636c655374616b696e673a206576656e74206973206e6f74207374604482015268185c9d1959081e595d60ba1b60648201526084016102ae565b60008060005b336000908152600560205260409020600401548110156105e157336000908152600560205260408120600401805461055191908490811061050b5761050b610dfc565b9060005260206000209060040201604051806080016040529081600082015481526020016001820154815260200160028201548152602001600382015481525050610ba1565b9050600061055e82610c01565b905061056a8183610e28565b33600090815260056020526040902060040180548590811061058e5761058e610dfc565b906000526020600020906004020160020160008282546105ae9190610e3f565b909155506105be90508286610e3f565b94506105ca8185610e3f565b9350505080806105d990610e57565b9150506104c8565b50336000908152600560205260408120600281018054908390556003909101805491928392610611908490610e3f565b9091555060009050816106248486610e28565b61062e9190610e3f565b6002546040519192506001600160a01b03169084156108fc029085906000818181858888f19350505050158015610669573d6000803e3d6000fd5b50604051339082156108fc029083906000818181858888f19350505050158015610697573d6000803e3d6000fd5b5060405181815233907f47cee97cb7acd717b3c0aa1435d004cd5b3c8c57d70dbceb4e4458bbd60e39d49060200160405180910390a25050600180555050565b6000546001600160a01b031633146107015760405162461bcd60e51b81526004016102ae90610dc7565b61070b6000610c1a565b565b6001600160a01b0390811660009081526005602052604090205416151590565b6000546001600160a01b031633146107575760405162461bcd60e51b81526004016102ae90610dc7565b6001600160a01b0381166107bc5760405162461bcd60e51b815260206004820152602660248201527f4f776e61626c653a206e6577206f776e657220697320746865207a65726f206160448201526564647265737360d01b60648201526084016102ae565b6107c581610c1a565b50565b60026001540361081a5760405162461bcd60e51b815260206004820152601f60248201527f5265656e7472616e637947756172643a207265656e7472616e742063616c6c0060448201526064016102ae565b600260015560035461087f5760405162461bcd60e51b815260206004820152602860248201527f5061727469636c655374616b696e673a206576656e74206973206e6f74206f70604482015267195b9959081e595d60c21b60648201526084016102ae565b336000908152600560205260409020600401546014116108f95760405162461bcd60e51b815260206004820152602f60248201527f5061727469636c655374616b696e673a206d6178696d756d207374616b65206360448201526e1bdd5b9d081a5cc81c995858da1959608a1b60648201526084016102ae565b6109023361070d565b61093b5733600081815260056020526040812080546001600160a01b031916909217909155600480549161093583610e57565b91905055505b600061094634610c01565b905060006109548234610e28565b336000908152600560205260408120600401549192509061097490610c6a565b600354909150429081101561098857506003545b33600081815260056020908152604080832081516080810183528881528084018881529281018581526060820188815260049384018054600181810183559189529690972092519590930290910193845591519383019390935551600282015590516003909101556001600160a01b0386161480610a0c5750610a0a8561070d565b155b15610a8857610a1a83610cae565b600280546001600160a01b031660009081526005602052604081209091018054909190610a48908490610e3f565b90915550506002546001600160a01b031660009081526005602052604081206001908101805491929091610a7d908490610e3f565b90915550610b269050565b610a9183610cae565b3360009081526005602052604081206002018054909190610ab3908490610e3f565b90915550610ac2905083610cae565b6001600160a01b03861660009081526005602052604081206002018054909190610aed908490610e3f565b90915550506001600160a01b03851660009081526005602052604081206001908101805491929091610b20908490610e3f565b90915550505b6002546040516001600160a01b039091169085156108fc029086906000818181858888f19350505050158015610b60573d6000803e3d6000fd5b5060405134815233907fe1fffcc4923d04b559f4d29a8bfc6cda04eb5b0d3c460751c2402c5c5cc9109c9060200160405180910390a2505060018055505050565b600081604001516301e13380606484602001518560000151866060015142610bc99190610e28565b610bd39190610e70565b610bdd9190610e70565b610be79190610e8f565b610bf19190610e8f565b610bfb9190610e28565b92915050565b60006064610c10836003610e70565b610bfb9190610e8f565b600080546001600160a01b038381166001600160a01b0319831681178455604051919092169283917f8be0079c531659141344cd1fd0a4f28419497f9722a3daafe3b4186f6b6457e09190a35050565b600080610c78836064610f95565b610c83846069610f95565b610c8f90610b68610e70565b610c999190610e8f565b9050610ca78161111c610cbd565b9392505050565b60006064610c10836005610e70565b6000818310610ccc5781610ca7565b5090919050565b600060208284031215610ce557600080fd5b81356001600160a01b0381168114610ca757600080fd5b602080825282518282018190526000919060409081850190868401855b82811015610d5357815180518552868101518786015285810151868601526060908101519085015260809093019290850190600101610d19565b5091979650505050505050565b600060208284031215610d7257600080fd5b5035919050565b6020808252602e908201527f5061727469636c655374616b696e673a2063616c6c6572206973206e6f74207460408201526d34329039ba30b5b2b437b63232b960911b606082015260800190565b6020808252818101527f4f776e61626c653a2063616c6c6572206973206e6f7420746865206f776e6572604082015260600190565b634e487b7160e01b600052603260045260246000fd5b634e487b7160e01b600052601160045260246000fd5b600082821015610e3a57610e3a610e12565b500390565b60008219821115610e5257610e52610e12565b500190565b600060018201610e6957610e69610e12565b5060010190565b6000816000190483118215151615610e8a57610e8a610e12565b500290565b600082610eac57634e487b7160e01b600052601260045260246000fd5b500490565b600181815b80851115610eec578160001904821115610ed257610ed2610e12565b80851615610edf57918102915b93841c9390800290610eb6565b509250929050565b600082610f0357506001610bfb565b81610f1057506000610bfb565b8160018114610f265760028114610f3057610f4c565b6001915050610bfb565b60ff841115610f4157610f41610e12565b50506001821b610bfb565b5060208310610133831016604e8410600b8410161715610f6f575081810a610bfb565b610f798383610eb1565b8060001904821115610f8d57610f8d610e12565b029392505050565b6000610ca78383610ef456fea2646970667358221220797a79986a8c69409c82878b622740e95d8db6e91f3f33299e1c83819a0d36a564736f6c634300080d0033",
  "immutableReferences": {},
  "source": "// SPDX-License-Identifier: MIT\npragma solidity ^0.8.0;\n\nimport \"@openzeppelin/contracts/access/Ownable.sol\";\nimport \"@openzeppelin/contracts/security/ReentrancyGuard.sol\";\n\ncontract ParticleStaking is Ownable, ReentrancyGuard {\n    address private _owner;\n    uint256 constant MIN_REWARD_RATE = 365 * 8;\n    uint256 constant MAX_REWARD_RATE = 365 * 12;\n    uint256 public startTime;\n    uint256 public stakeholderCount;\n    mapping(address => Stakeholder) public stakeholders;\n\n    struct Stakeholder {\n        address addr;\n        uint256 inviteeCount;\n        Rebate rebate;\n        Stake[] stakes;\n    }\n\n    struct Rebate {\n        uint256 amount;\n        uint256 claimed;\n    }\n\n    struct Stake {\n        uint256 amount;\n        uint256 rewardRate;\n        uint256 claimed;\n        uint256 createdAt;\n    }\n\n    constructor() {\n        _owner = msg.sender;\n    }\n\n    modifier onlyStakeholder() {\n        require(isStakeholder(msg.sender), \"ParticleStaking: caller is not the stakeholder\");\n        _;\n    }\n\n    modifier onlyOpened() {\n        require(startTime > 0, \"ParticleStaking: event is not opened yet\");\n        _;\n    }\n\n    modifier onlyStarted() {\n        require(block.timestamp > startTime, \"ParticleStaking: event is not started yet\");\n        _;\n    }\n\n    function setStartTime(uint256 _startTime)\n        external\n        onlyOwner\n    {\n        require(startTime == 0, \"ParticleStaking: event has already opened\");\n        startTime = _startTime;\n    }\n\n    function contractBalance()\n        external\n        view\n        returns (uint256)\n    {\n        return address(this).balance;\n    }\n\n    function stakesOf(address _stakeholder)\n        external\n        view\n        onlyStakeholder\n        returns (Stake[] memory)\n    {\n        return stakeholders[_stakeholder].stakes;\n    }\n\n    function isStakeholder(address _stakeholder)\n        public\n        view\n        returns (bool)\n    {\n        return stakeholders[_stakeholder].addr != address(0);\n    }\n\n    function deposit(address _referrer)\n        public\n        payable\n        nonReentrant\n        onlyOpened\n    {\n        require(stakeholders[msg.sender].stakes.length < 20, \"ParticleStaking: maximum stake count is reached\");\n        if (!isStakeholder(msg.sender)) {\n            stakeholders[msg.sender].addr = msg.sender;\n            stakeholderCount++;\n        }\n        uint256 _fee = calculateFee(msg.value);\n        uint256 _amount = msg.value - _fee;\n        uint256 _rewardRate = calculateRewardRate(stakeholders[msg.sender].stakes.length);\n        uint256 _createdAt = block.timestamp;\n        if (block.timestamp < startTime) {\n            _createdAt = startTime;\n        }\n        stakeholders[msg.sender].stakes.push(Stake({\n            amount: _amount,\n            rewardRate: _rewardRate,\n            claimed: 0,\n            createdAt: _createdAt\n        }));\n        if (_referrer == msg.sender || !isStakeholder(_referrer)) {\n            stakeholders[_owner].rebate.amount += calculateRebate(_amount);\n            stakeholders[_owner].inviteeCount += 1;\n        } else {\n            stakeholders[msg.sender].rebate.amount += calculateRebate(_amount);\n            stakeholders[_referrer].rebate.amount += calculateRebate(_amount);\n            stakeholders[_referrer].inviteeCount += 1;\n        }\n        payable(_owner).transfer(_fee);\n        emit Deposit(msg.sender, msg.value);\n    }\n\n    function claim()\n        public\n        payable\n        nonReentrant\n        onlyStakeholder\n        onlyStarted\n    {\n        uint256 _totalRewards;\n        uint256 _totalFees;\n        for (uint256 i = 0; i < stakeholders[msg.sender].stakes.length; i++) {\n            uint256 _reward = calculateReward(stakeholders[msg.sender].stakes[i]);\n            uint256 _fee = calculateFee(_reward);\n            stakeholders[msg.sender].stakes[i].claimed += _reward - _fee;\n            _totalRewards += _reward;\n            _totalFees += _fee;\n        }\n        uint256 _rebate = stakeholders[msg.sender].rebate.amount;\n        stakeholders[msg.sender].rebate.amount = 0;\n        stakeholders[msg.sender].rebate.claimed += _rebate;\n        uint256 _amount = _totalRewards - _totalFees + _rebate;\n        payable(_owner).transfer(_totalFees);\n        payable(msg.sender).transfer(_amount);\n        emit Claim(msg.sender, _amount);\n    }\n\n    function calculateReward(Stake memory _stake)\n        private\n        view\n        returns (uint256)\n    {\n        return (block.timestamp - _stake.createdAt) * _stake.amount * _stake.rewardRate / 100 / 365 days - _stake.claimed;\n    }\n\n    function calculateRewardRate(uint256 _level)\n        private\n        pure\n        returns (uint256)\n    {\n        uint256 _rewardRate = MIN_REWARD_RATE * (105 ** _level) / (100 ** _level);\n        return min(_rewardRate, MAX_REWARD_RATE);\n    }\n\n    function calculateRebate(uint256 _amount)\n        private\n        pure\n        returns (uint256)\n    {\n        return _amount * 5 / 100;\n    }\n\n    function calculateFee(uint256 _amount)\n        private\n        pure\n        returns (uint256)\n    {\n        return _amount * 3 / 100;\n    }\n\n    function min(uint256 _a, uint256 _b)\n        private\n        pure\n        returns (uint256)\n    {\n        return _a < _b ? _a : _b;\n    }\n\n    event Deposit(address indexed _stakeholder, uint256 _amount);\n    event Claim(address indexed _stakeholder, uint256 _amount);\n}\n",
  "sourcePath": "/Users/memochou/Projects/particle-staking/contracts/ParticleStaking.sol",
  "compiler": {
    "name": "solc",
    "version": "0.8.13+commit.abaa5c0e.Emscripten.clang"
  },
  "schemaVersion": "3.4.7",
  "updatedAt": "2022-06-18T12:02:06.847Z",
  "networkType": "ethereum",
  "devdoc": {
    "kind": "dev",
    "methods": {
      "owner()": {
        "details": "Returns the address of the current owner."
      },
      "renounceOwnership()": {
        "details": "Leaves the contract without owner. It will not be possible to call `onlyOwner` functions anymore. Can only be called by the current owner. NOTE: Renouncing ownership will leave the contract without an owner, thereby removing any functionality that is only available to the owner."
      },
      "transferOwnership(address)": {
        "details": "Transfers ownership of the contract to a new account (`newOwner`). Can only be called by the current owner."
      }
    },
    "version": 1
  },
  "userdoc": {
    "kind": "user",
    "methods": {},
    "version": 1
  }
}