{
  "contractName": "Staking",
  "abi": [
    {
      "inputs": [],
      "stateMutability": "nonpayable",
      "type": "constructor"
    },
    {
      "anonymous": false,
      "inputs": [
        {
          "indexed": true,
          "internalType": "address",
          "name": "_stakeholder",
          "type": "address"
        },
        {
          "indexed": false,
          "internalType": "uint256",
          "name": "_amount",
          "type": "uint256"
        }
      ],
      "name": "Claim",
      "type": "event"
    },
    {
      "anonymous": false,
      "inputs": [
        {
          "indexed": true,
          "internalType": "address",
          "name": "_stakeholder",
          "type": "address"
        },
        {
          "indexed": false,
          "internalType": "uint256",
          "name": "_amount",
          "type": "uint256"
        }
      ],
      "name": "Deposit",
      "type": "event"
    },
    {
      "anonymous": false,
      "inputs": [
        {
          "indexed": true,
          "internalType": "address",
          "name": "previousOwner",
          "type": "address"
        },
        {
          "indexed": true,
          "internalType": "address",
          "name": "newOwner",
          "type": "address"
        }
      ],
      "name": "OwnershipTransferred",
      "type": "event"
    },
    {
      "inputs": [],
      "name": "owner",
      "outputs": [
        {
          "internalType": "address",
          "name": "",
          "type": "address"
        }
      ],
      "stateMutability": "view",
      "type": "function",
      "constant": true
    },
    {
      "inputs": [],
      "name": "renounceOwnership",
      "outputs": [],
      "stateMutability": "nonpayable",
      "type": "function"
    },
    {
      "inputs": [],
      "name": "stakeholderCount",
      "outputs": [
        {
          "internalType": "uint256",
          "name": "",
          "type": "uint256"
        }
      ],
      "stateMutability": "view",
      "type": "function",
      "constant": true
    },
    {
      "inputs": [
        {
          "internalType": "address",
          "name": "",
          "type": "address"
        }
      ],
      "name": "stakeholders",
      "outputs": [
        {
          "internalType": "address",
          "name": "addr",
          "type": "address"
        }
      ],
      "stateMutability": "view",
      "type": "function",
      "constant": true
    },
    {
      "inputs": [
        {
          "internalType": "address",
          "name": "newOwner",
          "type": "address"
        }
      ],
      "name": "transferOwnership",
      "outputs": [],
      "stateMutability": "nonpayable",
      "type": "function"
    },
    {
      "inputs": [],
      "name": "contractBalance",
      "outputs": [
        {
          "internalType": "uint256",
          "name": "",
          "type": "uint256"
        }
      ],
      "stateMutability": "view",
      "type": "function",
      "constant": true
    },
    {
      "inputs": [],
      "name": "rewardRate",
      "outputs": [
        {
          "internalType": "uint256",
          "name": "",
          "type": "uint256"
        }
      ],
      "stateMutability": "pure",
      "type": "function",
      "constant": true
    },
    {
      "inputs": [
        {
          "internalType": "address",
          "name": "_stakeholder",
          "type": "address"
        }
      ],
      "name": "stakes",
      "outputs": [
        {
          "components": [
            {
              "internalType": "uint256",
              "name": "amount",
              "type": "uint256"
            },
            {
              "internalType": "uint256",
              "name": "claimed",
              "type": "uint256"
            },
            {
              "internalType": "uint256",
              "name": "lastClaimDate",
              "type": "uint256"
            }
          ],
          "internalType": "struct Staking.Stake[]",
          "name": "",
          "type": "tuple[]"
        }
      ],
      "stateMutability": "view",
      "type": "function",
      "constant": true
    },
    {
      "inputs": [
        {
          "internalType": "address",
          "name": "_stakeholder",
          "type": "address"
        }
      ],
      "name": "isStakeholder",
      "outputs": [
        {
          "internalType": "bool",
          "name": "",
          "type": "bool"
        }
      ],
      "stateMutability": "view",
      "type": "function",
      "constant": true
    },
    {
      "inputs": [],
      "name": "deposit",
      "outputs": [],
      "stateMutability": "payable",
      "type": "function",
      "payable": true
    },
    {
      "inputs": [],
      "name": "claim",
      "outputs": [],
      "stateMutability": "payable",
      "type": "function",
      "payable": true
    }
  ],
  "bytecode": "0x608060405234801561001057600080fd5b5061001a33610035565b60018055600280546001600160a01b03191633179055610085565b600080546001600160a01b038381166001600160a01b0319831681178455604051919092169283917f8be0079c531659141344cd1fd0a4f28419497f9722a3daafe3b4186f6b6457e09190a35050565b610a2c806100946000396000f3fe60806040526004361061009c5760003560e01c80638da5cb5b116100645780638da5cb5b14610128578063c07cfca91461015a578063d0e30db014610190578063d8319ef314610198578063ef037b90146101ae578063f2fde38b146101f957600080fd5b806316934fc4146100a15780634e71d92d146100d7578063715018a6146100e15780637b0a47ee146100f65780638b7afe2e14610115575b600080fd5b3480156100ad57600080fd5b506100c16100bc366004610872565b610219565b6040516100ce91906108a2565b60405180910390f35b6100df6102eb565b005b3480156100ed57600080fd5b506100df610541565b34801561010257600080fd5b50610e425b6040519081526020016100ce565b34801561012157600080fd5b5047610107565b34801561013457600080fd5b506000546001600160a01b03165b6040516001600160a01b0390911681526020016100ce565b34801561016657600080fd5b50610142610175366004610872565b6004602052600090815260409020546001600160a01b031681565b6100df6105a7565b3480156101a457600080fd5b5061010760035481565b3480156101ba57600080fd5b506101e96101c9366004610872565b6001600160a01b0390811660009081526004602052604090205416151590565b60405190151581526020016100ce565b34801561020557600080fd5b506100df610214366004610872565b6106f9565b336000908152600460205260409020546060906001600160a01b031661025a5760405162461bcd60e51b8152600401610251906108fb565b60405180910390fd5b6001600160a01b038216600090815260046020908152604080832060010180548251818502810185019093528083529193909284015b828210156102e05783829060005260206000209060030201604051806060016040529081600082015481526020016001820154815260200160028201548152505081526020019060010190610290565b505050509050919050565b60026001540361033d5760405162461bcd60e51b815260206004820152601f60248201527f5265656e7472616e637947756172643a207265656e7472616e742063616c6c006044820152606401610251565b6002600155336000908152600460205260409020546001600160a01b03166103775760405162461bcd60e51b8152600401610251906108fb565b60008060005b336000908152600460205260409020600101548110156104c65733600090815260046020526040812060010180546103fc9190849081106103c0576103c0610941565b906000526020600020906003020160405180606001604052908160008201548152602001600182015481526020016002820154815250506107c4565b9050600061040982610813565b9050610415818361096d565b33600090815260046020526040902060010180548590811061043957610439610941565b906000526020600020906003020160010160008282546104599190610984565b909155505033600090815260046020526040902060010180544291908590811061048557610485610941565b60009182526020909120600260039092020101556104a38286610984565b94506104af8185610984565b9350505080806104be9061099c565b91505061037d565b506002546040516001600160a01b039091169082156108fc029083906000818181858888f19350505050158015610501573d6000803e3d6000fd5b50336108fc610510838561096d565b6040518115909202916000818181858888f19350505050158015610538573d6000803e3d6000fd5b50506001805550565b6000546001600160a01b0316331461059b5760405162461bcd60e51b815260206004820181905260248201527f4f776e61626c653a2063616c6c6572206973206e6f7420746865206f776e65726044820152606401610251565b6105a56000610822565b565b6002600154036105f95760405162461bcd60e51b815260206004820152601f60248201527f5265656e7472616e637947756172643a207265656e7472616e742063616c6c006044820152606401610251565b6002600155336000908152600460205260409020546001600160a01b03166106505733600081815260046020526040812080546001600160a01b031916909217909155600380549161064a8361099c565b91905055505b600061065b34610813565b90506000610669823461096d565b33600090815260046020908152604080832081516060810183528581528084018581524282850190815260019384018054808601825590885295872092516003909602909201948555519184019190915551600292830155905490519293506001600160a01b03169184156108fc0291859190818181858888f19350505050158015610538573d6000803e3d6000fd5b6000546001600160a01b031633146107535760405162461bcd60e51b815260206004820181905260248201527f4f776e61626c653a2063616c6c6572206973206e6f7420746865206f776e65726044820152606401610251565b6001600160a01b0381166107b85760405162461bcd60e51b815260206004820152602660248201527f4f776e61626c653a206e6577206f776e657220697320746865207a65726f206160448201526564647265737360d01b6064820152608401610251565b6107c181610822565b50565b60006301e133806064610e4284600001518560400151426107e5919061096d565b6107ef91906109b5565b6107f991906109b5565b61080391906109d4565b61080d91906109d4565b92915050565b600060646108038360016109b5565b600080546001600160a01b038381166001600160a01b0319831681178455604051919092169283917f8be0079c531659141344cd1fd0a4f28419497f9722a3daafe3b4186f6b6457e09190a35050565b60006020828403121561088457600080fd5b81356001600160a01b038116811461089b57600080fd5b9392505050565b602080825282518282018190526000919060409081850190868401855b828110156108ee57815180518552868101518786015285015185850152606090930192908501906001016108bf565b5091979650505050505050565b60208082526026908201527f5374616b696e673a2063616c6c6572206973206e6f7420746865207374616b656040820152653437b63232b960d11b606082015260800190565b634e487b7160e01b600052603260045260246000fd5b634e487b7160e01b600052601160045260246000fd5b60008282101561097f5761097f610957565b500390565b6000821982111561099757610997610957565b500190565b6000600182016109ae576109ae610957565b5060010190565b60008160001904831182151516156109cf576109cf610957565b500290565b6000826109f157634e487b7160e01b600052601260045260246000fd5b50049056fea2646970667358221220aeb2f2e5ddbdda89678bc86909bc4d478e32faa71f5a6dee25accd3a5184a89064736f6c634300080d0033",
  "immutableReferences": {},
  "source": "// SPDX-License-Identifier: MIT\npragma solidity ^0.8.0;\n\nimport \"@openzeppelin/contracts/access/Ownable.sol\";\nimport \"@openzeppelin/contracts/security/ReentrancyGuard.sol\";\n\ncontract Staking is Ownable, ReentrancyGuard {\n    uint256 constant REWARD_RATE = 3650;\n\n    address private _owner;\n\n    uint256 public stakeholderCount;\n    mapping(address => Stakeholder) public stakeholders;\n\n    struct Stakeholder {\n        address addr;\n        Stake[] stakes;\n    }\n\n    struct Stake {\n        uint256 amount;\n        uint256 claimed;\n        uint256 lastClaimDate;\n    }\n\n    constructor() {\n        _owner = msg.sender;\n    }\n\n    modifier onlyStakeholder() {\n        require(isStakeholder(msg.sender), \"Staking: caller is not the stakeholder\");\n        _;\n    }\n\n    function contractBalance()\n        external\n        view\n        returns (uint256)\n    {\n        return address(this).balance;\n    }\n\n    function rewardRate()\n        external\n        pure\n        returns (uint256)\n    {\n        return REWARD_RATE;\n    }\n\n    function stakes(address _stakeholder)\n        external\n        view\n        onlyStakeholder\n        returns (Stake[] memory)\n    {\n        return stakeholders[_stakeholder].stakes;\n    }\n\n    function isStakeholder(address _stakeholder)\n        public\n        view\n        returns (bool)\n    {\n        return stakeholders[_stakeholder].addr != address(0);\n    }\n\n    function deposit()\n        public\n        payable\n        nonReentrant\n    {\n        if (!isStakeholder(msg.sender)) {\n            stakeholders[msg.sender].addr = msg.sender;\n            stakeholderCount++;\n        }\n        uint256 _fee = calculateFee(msg.value);\n        uint256 _amount = msg.value - _fee;\n        stakeholders[msg.sender].stakes.push(Stake({\n            amount: _amount,\n            claimed: 0,\n            lastClaimDate: block.timestamp\n        }));\n        payable(_owner).transfer(_fee);\n    }\n\n    function claim()\n        public\n        payable\n        nonReentrant\n        onlyStakeholder\n    {\n        uint256 _totalRewards;\n        uint256 _totalFees;\n        for (uint256 i = 0; i < stakeholders[msg.sender].stakes.length; i++) {\n            uint256 _reward = calculateReward(stakeholders[msg.sender].stakes[i]);\n            uint256 _fee = calculateFee(_reward);\n            stakeholders[msg.sender].stakes[i].claimed += _reward - _fee;\n            stakeholders[msg.sender].stakes[i].lastClaimDate = block.timestamp;\n            _totalRewards += _reward;\n            _totalFees += _fee;\n        }\n        payable(_owner).transfer(_totalFees);\n        payable(msg.sender).transfer(_totalRewards - _totalFees);\n    }\n\n    function calculateReward(Stake memory _stake)\n        private\n        view\n        returns (uint256)\n    {\n        return (block.timestamp - _stake.lastClaimDate) * _stake.amount * REWARD_RATE / 100 / 365 days;\n    }\n\n    function calculateFee(uint256 _amount)\n        private\n        pure\n        returns (uint256)\n    {\n        return _amount * 1 / 100;\n    }\n\n    event Deposit(address indexed _stakeholder, uint256 _amount);\n    event Claim(address indexed _stakeholder, uint256 _amount);\n}\n",
  "sourcePath": "/Users/memochou/Projects/eth-ponzi-scheme/contracts/Staking.sol",
  "compiler": {
    "name": "solc",
    "version": "0.8.13+commit.abaa5c0e.Emscripten.clang"
  },
  "schemaVersion": "3.4.7",
  "updatedAt": "2022-06-14T12:31:31.876Z",
  "networkType": "ethereum",
  "devdoc": {
    "kind": "dev",
    "methods": {
      "owner()": {
        "details": "Returns the address of the current owner."
      },
      "renounceOwnership()": {
        "details": "Leaves the contract without owner. It will not be possible to call `onlyOwner` functions anymore. Can only be called by the current owner. NOTE: Renouncing ownership will leave the contract without an owner, thereby removing any functionality that is only available to the owner."
      },
      "transferOwnership(address)": {
        "details": "Transfers ownership of the contract to a new account (`newOwner`). Can only be called by the current owner."
      }
    },
    "version": 1
  },
  "userdoc": {
    "kind": "user",
    "methods": {},
    "version": 1
  }
}